:020000040800F2
:10000000481F002001010008F70C0008CD0C000873
:10001000F50C0008C5090008992D00080000000033
:10002000000000000000000000000000412900085E
:10003000C70900080000000067010008ED2900085A
:100040001B0100081B0100081B01000855270008C0
:100050001B0100081B0100081B0100081B01000810
:100060001B0100081B0100081B0100081B01000800
:100070001B0100081B0100081B0100081B010008F0
:100080001B0100081B0100081B0100081B010008E0
:100090001B0100081B0100081B0100081B010008D0
:1000A0001B0100081B0100081B0100081B010008C0
:1000B0001B0100081B0100081B0100081B010008B0
:1000C0001B0100081B0100081B0100081B010008A0
:1000D0001B010008012B0008C52B00081B010008AC
:1000E0001B010008DD2400081B010008DFF80CD00C
:1000F00000F0E2FB00480047C1410008481F002013
:100100000648804706480047FEE7FEE7FEE7FEE7B1
:10011000FEE7FEE7FEE7FEE7FEE7FEE7112A00083E
:10012000ED000008EFF3108072B6704780F310887E
:1001300070471D484FF0FF010170002080F30988CF
:100140001A48012101701A484FF08051016062B6CF
:10015000FEE717484FF080510160704714484FF098
:1001600080510160704772B6EFF3098028B12038E2
:1001700080E8F00F0F490968086000B50E48804715
:100180005DF804EB0D480E490A78027009480D49E4
:100190000A680260106890E8F00F203080F3098848
:1001A0004EF0040E62B6704722ED00E0AD00002074
:1001B00004ED00E0BC000020BB140008AA000020F1
:1001C000AB000020C400002072B6704762B67047D2
:1001D000EFF3108072B6704780F310887047B0FA62
:1001E00080F0704790FAA0F0704730BF704720BF92
:1001F000704740EA01039B0703D009E008C9121FBA
:1002000008C0042AFAD203E011F8013B00F8013BD0
:10021000521EF9D27047421C10F8011B0029FBD175
:10022000801A70472DE9FE4F804681EA0300C00F17
:100230000C46009021F0004123F00045B8EB02008D
:10024000A94105D24046214690461C460B4602462F
:1002500023F00040104347D0270DC7F30A00C3F333
:100260000A510290401A019040286BDAC3F3130040
:1002700040F4801B0098924620B10023D2EB030A81
:1002800063EB0B0B01985946C0F14002504600F059
:100290001CFA06460D4650465946019A00F034FABB
:1002A00010EB08006141002487EA115284EAE773E9
:1002B0001A4340D0009A62B3019A012A4FEA0752CA
:1002C00015DC001B61EB02014FF0004202EA07520D
:1002D000CDE90042001C41F5801132462B4600F06A
:1002E00034FA03B0BDE8F08F40462146F9E7001B21
:1002F00061EB0201001C41F5801300185B412018DE
:10030000A2F5001747EB030140EAD570B6196D411D
:1003100011E06D084FEA360645EAC0754FEA07520C
:10032000001B61EB0201001C41F5801149084FEAF6
:1003300030000019514132462B4603B0BDE8F04F62
:1003400000F0F4B90098012240000023D0EB020233
:1003500063EBE073009821464FEAE074B8EB0000CD
:1003600061EB0401E9E783F000435BE781F00041C2
:1003700058E72DE9FE4F81EA030404F0004421F020
:10038000004100944FF0000B23F0004350EA0104B9
:100390005ED052EA03045BD0C3F30A54C1F30A559A
:1003A0002C44A4F2F3340194A0FB0254C1F31301D2
:1003B00041F48011C3F3130343F4801301FB02449F
:1003C00000FB034E840A970A44EA815447EA8357A4
:1003D000A4FB076802958D0A05FB07854FEA932C5D
:1003E00004FB0C542705029D4FEA065847EA1637CE
:1003F000B5EB08056EEB070C870E920E47EA8117E6
:1004000042EA8312A7FB0201B6EB0B0164EB000486
:100410002B0D43EA0C335E1844EB1C50DA46514670
:10042000E7FB0201C5F313044FEA0B3343EA14530D
:100430004FEA0432019C43EA0603A4F10C0402943F
:10044000009CCDE900B400F080F903B0BDE8F08F66
:1004500000200146F9E72DE9F04D81EA030404F09C
:10046000004B21F0004514464FF0000A23F00041F4
:1004700050EA050220D054EA01021DD0C5F30A5704
:100480000246C5F31303C1F31300C1F30A5640F447
:10049000801543F48013A7EB0608101BD64608F21C
:1004A000FD3873EB050002D308F1010801E0921852
:1004B0005B41B8F1000F03DA00200146BDE8F08D82
:1004C00000204FF48011064684460EE0171B73EBA4
:1004D000050705D3121B63EB050306434CEA010C29
:1004E00049084FEA300092185B4150EA0107EDD10C
:1004F00052EA030012D082EA040083EA05010843AD
:1005000005D0101BAB4106D20122002306E00022D9
:100510004FF0004302E06FF0010253101AEB0600A7
:100520004CEB085110EB0A0041EB0B01BDE8F04D1C
:1005300000F0FCB870B521F0004303430CD0C1F3C8
:100540000A550024D5EB040564EB0403D617AD1A55
:10055000B34102DB0020014670BD201841EB02517F
:1005600070BD0EB5C10F80EAE0700844CA070021D3
:1005700040F233438DE80E000A460B4600F0E5F8E2
:1005800003B000BD0EB540F2334102910021CDE928
:1005900000110A460B4600F0D8F803B000BD70B554
:1005A000C1F30A5201F000450024C1F3130140F2E7
:1005B000FF3341F480119A4201DA002070BD40F20D
:1005C00033439A42A2F2334203DC524200F08CF8E9
:1005D00000E090402C43F1D0404270BD30B5041E85
:1005E00071F1000404DB4FF00044404264EB010170
:1005F000141E73F1000405DB1C464FF00043524209
:1006000063EB04038B4208BF824230BD30B5041E49
:1006100071F1000404DB4FF00044404264EB01013F
:10062000141E73F1000405DB1C464FF000435242D8
:1006300063EB0403994208BF904230BD30B50B46CE
:10064000014600202022012409E021FA02F59D4202
:1006500005D303FA02F5491B04FA02F52844151ED6
:10066000A2F10102F1DC30BD2DE9F05F054600206A
:1006700092469B4688460646814640241BE0284613
:1006800041464746224600F02FF853465A46C01AC4
:10069000914110D311461846224600F016F82D1A43
:1006A00067EB01084F4622460120002100F00DF8BB
:1006B00017EB00094E41201EA4F10104DFDC48467F
:1006C00031462A464346BDE8F09F202A04DB203A03
:1006D00000FA02F1002070479140C2F1200320FA95
:1006E00003F3194390407047202A04DB203A21FA93
:1006F00002F00021704721FA02F3D040C2F120023B
:100700009140084319467047202A06DBCB17203A50
:1007100041FA02F043EAE07306E041FA02F3D04006
:10072000C2F12002914008431946704710B5141ECB
:1007300073F1000408DA401C41F1000192185B419A
:100740001A4301D120F0010010BD2DE9F04D924671
:100750009B4611B1B1FA81F202E0B0FA80F2203288
:100760009046FFF7B2FF04460F4640EA0A0041EA0E
:100770000B0153465A46084313D0114653EA010071
:1007800019D0C8F140025046FFF7AEFF05460E46AD
:10079000504659464246FFF798FF084305D00120CE
:1007A00004E020463946BDE8F08D0020054346EAC6
:1007B000E0762C4337430A986305E40AA0EB08006F
:1007C0000022FD0A44EA47540A3002D500200146BF
:1007D000E9E7010510196941DDE90845001969419A
:1007E000BDE8F04DA2E72DE9F04D00231A461B1A93
:1007F0008A4103DB00200146BDE8F08DC1F30A52B7
:10080000C1F3130141F480154FF0000BD10702D161
:1008100000186D41521E0027044640F2FF11384671
:1008200001EB620A3E468046024600204FF48011EA
:10083000FFF75AFFC2197141BB1846EB0100B4EB38
:10084000030C75EB000C04D3E41A65EB00051746A6
:100850000E46241908F101006D4180463428E3DD7D
:10086000F91946EB0600091BA84103D24FF0FF32ED
:10087000134601E0002213461BEB070046EB0A512A
:10088000BDE8F04DFFF752BFC1F30A52C1F31301A7
:1008900040F2FF3341F480119A4202DA002001460F
:1008A000704740F233439A42A2F2334202DC524292
:1008B000FFF71ABFFFF709BF064C074D06E0E068D7
:1008C00040F0010394E8070098471034AC42F6D397
:1008D000FFF710FCD0530008F05300083B23024AF6
:1008E0000021024800F012BD4C0A00205D400008C3
:1008F000704770477047000008B500F0C1FF01F075
:10090000B3FC00F0F9F90121082001F09BFC4FF441
:10091000C050ADF8000003208DF8020010208DF8C3
:10092000030069460A4800F055F802F099F802F011
:10093000FBF801F099FEFFF7D1FF06A002F02EFAB6
:1009400000231A460121184600F0EEFDF8E70000EA
:10095000000C01403D3D3D3D3D3D3D3D3D4D61690E
:100960006E205461736B2053746172743D3D3D3D44
:100970003D0A00007047704710B5012001F06EFC81
:10098000BDE81040002001F069BC000008B5024934
:1009900008440090008808BD006C004008B5024A79
:1009A00010440090016008BD006C004010B5142197
:1009B000024800F0BFFA0249086010BDFC010020A7
:1009C00000000020FEE77047014908607047000002
:1009D00014040140F0B5CC78002204F00F03E406C3
:1009E00001D58C7823430C784FF00F0C14F0FF0FD7
:1009F0004FF0010E1BD005680E880EFA02F4264057
:100A0000A64210D196000CFA06F725EA070703FA6A
:100A100006F5CE783D43282E02D0482E02D002E0C3
:100A2000446100E00461521C082AE5D305600A888D
:100A3000FF2A1CD94468002202F108060EFA06F5C6
:100A40000E882E40AE420ED196000CFA06F7BC433B
:100A500003FA06F7CE783C43282E00D14561CE78C4
:100A6000482E00D10561521C082AE5D34460F0BD30
:100A7000416170470161704770B5454C0023012505
:100A8000A3712178002978D06178C9B1A1780129B2
:100A90000AD002290BD004290CD008290DD02370CC
:100AA0006370A370E57070E001F02CF96DE001F067
:100AB0005FF96AE001F0B4F967E001F073FA64E00D
:100AC0002A280AD0324A08322C2808D0E17850541B
:100AD000491CC8B2E070052857D9237055E02C494D
:100AE000D078083147280A7902D0532806D02AE066
:100AF000412A28D127484370A5703AE0412A22D1E3
:100B0000244E00200A363118401CC0B28B700C28CD
:100B1000F9D300203118401CCB740B76C0B28B7314
:100B20000528F7D31B4E0020283600EB400106EBCA
:100B30004101401C8B708B71CB70C0B28B800C2834
:100B4000F3D30220A070562A02D0432A02D010E02C
:100B500004200DE00F482D212438C3710372438116
:100B600001734373837303828174838283830820B8
:100B7000A0706570E57006E0FFE7242805D12570B8
:100B8000E3706370A37023716371A07970BD00007E
:100B900020000020940A00202DE9FC5FDDE90C45CF
:100BA0009046994604F036F806460F4620462946F8
:100BB00004F030F804460D464046494604F02AF851
:100BC00082468B46DDE90E0104F024F88146884612
:100BD00022462B4630463946FFF7C5FBCDE90001DA
:100BE0004A46434650465946FFF7BDFB4FF0FF3B90
:100BF0005A46FFF79FFC04F089F84FF0804A002224
:100C0000534603F009FB814688462046294603F0F7
:100C1000B1F90D4604463046394603F0ABF9224699
:100C20002B46FFF7A6FB4A464346FFF7A2FB0446C6
:100C30000D46DDE900015A46FFF77CFC04F066F83A
:100C40000022534603F0E8FA22462B46FFF7EAFA61
:100C500004F0ACF803F056F80122FFF76BFC5246A3
:100C60000E4BFFF786FB0E4E04460D460022334620
:100C7000FFF7B4FC03D222462B460AA008E000226C
:100C8000334620462946FFF7E6FB02460B460AA0FC
:100C900002F084F820462946BDE8FC9FA65458413E
:100CA00000408F4044697374616E63653D25302E4A
:100CB00033666D202000000044697374616E6365C3
:100CC0003D25302E33666B6D20200000FEE7810746
:100CD0000CD16421B0FBF1F201FB120141B94FF4D8
:100CE000C871B0FBF1F201FB120008B1002070479F
:100CF00001207047FEE7704738B500214FF00060D3
:100D000000F06CF84FF4E06000F05EF825208DF8FC
:100D1000000000258DF8025001248DF8034068463C
:100D200000F020F826208DF800008DF802508DF894
:100D30000340684600F016F838BD08B54FF4A060CF
:100D400000F042F803208DF8000000208DF801002B
:100D50008DF8020001208DF80300684600F002F8CB
:100D600008BD000030B50F23C27801780125F2B12B
:100D7000144A126801F1E02102F4E062C2F5E06277
:100D8000120AC2F10404D3404278A24084781C4085
:100D90001443220181F80024007800F01F018D40E7
:100DA0004009800000F1E020C0F8005130BD01F0A2
:100DB0001F0085404809800000F1E020C0F8805104
:100DC00030BD00000CED00E0024908430249086014
:100DD000704700000000FA050CED00E0024A1140E7
:100DE000014302480160704780FFFF1F08ED00E0EB
:100DF0007047000070B50E460500144606D03EB19F
:100E00000E48007830B11220107070BD0420FBE74E
:100E10000C20F9E72A78012A07D0022A05D0032AF4
:100E200003D0042A01D0012005E0FFF77BF96E61B1
:100E3000FFF77CF90020207070BD0000A8000020A2
:100E400010B586B000F040F81C4900244C620C70CC
:100E50004C708C714C718C600C610C71204601F1EE
:100E600028021454401CC0B20828FAD38C70CC70ED
:100E7000CC614C6100F0FCFD00F0CEFD00F0A8FD5F
:100E800000F032FE00F056FE202102910320CDE951
:100E900003400B4A4FF6FF70CDE900023F237C323E
:100EA0000021084800F07AFA00F0E2FB00F012F8A6
:100EB00006B0BDE81040FFF79BBF0000A80000206F
:100EC000FC0D0020C51C0008014900200880704767
:100ED000A40000207047000070B5144C6079012810
:100EE00022D1FFF71FF92178054621B1491E11F0E3
:100EF000FF00207013D1607888B900F061FE0C49C2
:100F0000E07851F82010E161A278904207D0C86BD8
:100F1000401CC863A068401CA060FFF71FF928466A
:100F2000BDE87040FFF702B970BD0000A8000020C6
:100F30007C0E00202DE9F04106461B4888460078CB
:100F400010B10020BDE8F081FFF7ECF8174F3C68C6
:100F50000CB161683960FFF7E9F814B3FFF7E2F804
:100F600013490D68BDB12A680A60FFF7DFF806EB88
:100F70008800C5E90160EE602E61A5F814800020AC
:100F8000E8820221217020810AA06560606120460C
:100F900000F014FD05E0396861603C60FFF7C6F8B9
:100FA00000242046CEE70000A8000020B400002066
:100FB000E00000203F0000002DE9F04789460500D1
:100FC000144604D02878022803D001200AE0042027
:100FD00008E02F48007808B1022003E02D4800788F
:100FE00020B10D2010700020BDE8F087FFF79AF8BF
:100FF000064668680027C18A81B10269111D016136
:101000001568C28A521EC2828268914201D141682B
:1010100001613046FFF78AF8277036E0DFF8788004
:10102000D8F8000010F8341F41F004010170477037
:1010300040F8049C284600F09DFC3046FFF776F807
:1010400000F09AFDFFF76EF80646D8F8000090F819
:10105000351039B1022908D0294600F067FC002577
:101060000A2004E0456A277002E000250E20207067
:10107000D8F8000080F8347080F8357040F81C7F94
:10108000476087603046FFF751F82846ACE700001C
:10109000A8000020A9000020BC00002070B50E466A
:1010A000040004D02078022803D0012070BD042061
:1010B00070BDFFF737F80546A07A58B10023042227
:1010C0003146204600F0F8FB2846FFF72FF800F0E5
:1010D00053FD19E06068C18A828A914204D3284690
:1010E000FFF724F81E2070BDC1680A1DC2600E60A3
:1010F000C18A491CC182D0E902128A4201D14168E9
:10110000C1602846FFF712F8002070BD10B5094CE9
:10111000607901280CD1FFF705F8217821B96178B1
:10112000FF2901D2491C6170BDE81040FEF7FEBFE7
:1011300010BD0000A800002010B50D4C60790128FA
:1011400014D1FEF7EFFF617831B1491E11F0FF01B4
:10115000617001D1217819B1BDE81040FEF7E6BFFA
:10116000FEF7E4FFBDE8104000F006BD10BD000032
:10117000A800002070B505460D48007808B1002091
:1011800070BDFEF7CFFF0B490C680CB162680A60B6
:10119000FEF7CCFF4CB10320207025810020606059
:1011A00005A06061204600F009FC204670BD0000EB
:1011B000A8000020B40000203F0000002DE9F04707
:1011C00089460500144604D02878032803D001205E
:1011D0000AE0042008E02748007808B1022003E074
:1011E0002548007818B10D201070BDE8F087FEF793
:1011F00099FF06462889002730B1401E28813046D5
:10120000FEF794FF2770F0E7DFF87080D8F8000051
:1012100010F8341F41F001010170477040F8049C40
:10122000284600F0A7FB3046FEF780FF00F0A4FC44
:10123000FEF778FF0646D8F8000090F8351031B177
:10124000022906D0294600F071FB0A2002E027702F
:1012500001E00E202070D8F8000080F8347080F88B
:10126000357040F81C7F47603046BDE8F047FEF718
:101270005DBF0000A8000020A9000020BC000020E5
:1012800070B5040004D02078032803D0012070BD7D
:10129000042070BDFEF746FF0546A07A58B1002332
:1012A00001221946204600F007FB2846FEF73EFFC4
:1012B00000F062FC09E020894FF6FF71884206D2F7
:1012C000401C20812846FEF731FF002070BD2846D3
:1012D000FEF72CFF332070BD10B5094C6079002853
:1012E0000CD100F06DFCE0780649A07051F82000A8
:1012F000E0616061BDE81040FEF71BBF10BD00005B
:10130000A80000207C0E0020FFF7F2BA2DE9FE4372
:101310001C4616460F4680463F2B02D92A20BDE8C0
:10132000FE83FEF7FFFE1A49097819B1FEF7FEFEAB
:101330003C20F4E7174D55F8241019B1FEF7F6FEDE
:101340002820ECE7012145F82410FEF7EFFE0023EA
:1013500032463946404600F077F8002601460096AE
:101360000196334632462046029600F039FC0700CB
:1013700007D0FEF7D7FE45F82460FEF7D7FE3846C3
:10138000CDE7054800780128F9D100F0F5FBF6E734
:10139000A80000207C0E0020AD0000202DE9FF4FAA
:1013A00083B01C46DDE91386DDE9119792468B4632
:1013B0003F2B03D92A2007B0BDE8F08FFEF7B2FE1D
:1013C0001C49097819B1FEF7B1FE3C20F3E71A4D2C
:1013D00055F8241019B1FEF7A9FE2820EBE70121EA
:1013E00045F82410FEF7A2FE32463946484600F082
:1013F00077FC334652465946039800F025F800978B
:10140000CDE9018601464A462046109B00F0E8FBE4
:10141000060008D0FEF786FE002145F82410FEF7EE
:1014200085FE3046C7E7054800780128F9D100F06D
:10143000A3FBF6E7A80000207C0E0020AD000020F2
:10144000FFF757BAFFF756BA4FF080731360131FB8
:101450001860A2F108006FF001030360001F4FF055
:1014600012330360001F4FF003330360001F4FF07F
:1014700002330360001F5B100360001F0160001F48
:101480004FF011310160001F19010160001F4FF082
:1014900009310160001FD9000160001F4FF00731C2
:1014A0000160001F4FF006310160001F4FF0053151
:1014B00001609900001F01607047FFF75BBA0000F0
:1014C00070B5044613480078002821D112480078EE
:1014D00000281DD1002C1BD0FEF724FE03460F4828
:1014E0000F4D016891F8382091F83960A85CB0433D
:1014F000A85405D10B4891F83A500278AA430270DB
:1015000018460C63FEF712FEBDE8704000F034BBD5
:1015100070BD0000A8000020A9000020BC00002031
:10152000D0000020AC00002070B51A4C24780CB11B
:10153000552070BD184C24780CB1322070BD00B914
:1015400019B13B2902D9512070BD1AB13B2A02D9E9
:10155000522070BD2BB14FF47A74A34203D35320B1
:1015600070BD542070BD64255B1D6B43B3FBF4F369
:101570004FF461646043C1EB011100EB8100104442
:1015800000EBC00101EB001003EB8000FFF798FFB8
:10159000002070BDA8000020A90000202DE9F04126
:1015A00000F04CF8FEF7BEFD234D696A491C6962E4
:1015B000FEF7BCFD687901283BD1E87901260027B8
:1015C00020B1012835D0022802D0EF712C6A2CE01E
:1015D000EE71FBE7FEF7A6FD216B19B3491E2163EF
:1015E00020D194F8341011F0370F06D001F0C80163
:1015F00084F8341084F8356001E084F8357094F88C
:10160000341009070ED494F83A102A790A4B114382
:10161000297194F83810283394F839C05A5C42EA9A
:101620000C025A546469FEF781FD94F836003F2895
:10163000D0D1BDE8F0810000A800002010B5FFF770
:101640009AF907490888401C80B208800A2805D307
:1016500000200880BDE8104000F004B810BD000074
:10166000A400002001480068FFF70ABEF000002037
:1016700070B586B04FF420712B4800F02BFA402152
:101680002A4800F027FA0020274B04466425411C15
:1016900000EB80000A4603EBC00089B201EB810138
:1016A000057003EBC10180F82540C16020A10162F3
:1016B00090B20F28EBD300EB800003EBC0001CA11D
:1016C000057080F82540C46001621A481B49046017
:1016D0001948048010200880194803600120FFF792
:1016E00049FD184D28600020FFF744FD164E05AA5D
:1016F00016A130602868FFF77DFB05AA18A13068A5
:10170000FFF778FB402102910320CDE90340194AFD
:101710004FF6FD70CDE900023D23FC320021164852
:10172000FFF73CFE06B070BD88170020081B0020A4
:101730003F000000E8000020E6000020E400002058
:10174000F4000020EC000020F000002075432F4F33
:10175000532D494920546D724C6F636B000000009B
:1017600075432F4F532D494920546D725369676E4D
:10177000616C0000081A0020C9170008032280F8D5
:1017800025200F4A0129126814D0816991B11144B2
:101790004161017D0B4A01F0070102EBC101002309
:1017A0000A68086042B1C26010618A88521C8A804F
:1017B00003617047C169EAE70122C360F7E70000EF
:1017C000E8000020081B002008B5DFF86880DFF87B
:1017D00068901A4E6A460021D8F80000FFF7EEFC28
:1017E000FFF794FC3068401C306000F007000227CF
:1017F00059F8304013E060693168E56888420DD1DE
:10180000204600F01DF894F8240002280CD084F83B
:101810002570626812B12046A16890472C46002CC2
:10182000E9D1FFF789FCD5E701212046FFF7A6FFA4
:10183000EFE70000F0000020081B0020E800002077
:1018400010B5017D0D4A01F0070102EBC101002432
:101850000B68C268834203D10A602AB1146103E0B5
:101860000369DA6002B11361012280F82520C460A7
:1018700004618888401E888010BD0000081B00207D
:101880000B4864210068B0FBF1F0B0F1807F0ED20C
:1018900020F07F414FF0E020491E4161054AF021D0
:1018A00082F8141D00218161072101617047FEE764
:1018B000900000200FE000E0F0B50F460546807A6A
:1018C0001749085C2C18E47A095D01EBC001CEB21F
:1018D000144951F8264000216762216394F83410BE
:1018E000914384F8341084F8353009070BD40E493D
:1018F00094F83A200B791A430A71283194F8393058
:101900000A5C1A430A542946204600F00FF8216A5F
:1019100019B1204600F01AF8E5613046F0BD00002C
:10192000844E00087C0E0020A800002010B590F81E
:10193000382090F839408B18DA7AA243DA7204D151
:101940008A7A90F83A0082438A7210BD70B510F816
:10195000385F84784678086809E04319DA7AB24338
:10196000DA7202D1827AA243827251F8040F0028FF
:10197000F3D170BD30B5104C00F10B02616941F834
:101980001C0F0B7F497F9D5C0D439D546169827ADA
:1019900091F83A301A43827291F8380004F1280322
:1019A00091F839501A5CAA431A5404D191F83A10AC
:1019B00020798843207130BDA80000200022827267
:1019C00011464318491CC9B2DA720829F9D3704785
:1019D00010B550210D4800F07DF800200B4B044657
:1019E000411C03EB00108AB203EB02120470426048
:1019F00007A2C26088B20428F2D303EB001004A14E
:101A000004704460C1600348036010BD601600208C
:101A10003F000000D800002010B54FF4F0711148CD
:101A200000F058F800200F4B0446411C0A4600EB1A
:101A3000400089B203EBC00001EB410103EBC1019F
:101A40000470416008A1416190B21328EDD300EB0E
:101A5000400003EBC00004A10470446041610348EE
:101A6000C36010BD1C0C00203F000000A800002037
:101A700010B540F2E461144800F02CF84FF4807186
:101A8000124800F027F8104C0020411CC0EBC000A9
:101A90000A4600EB4000C9B204EB8003C1EBC10071
:101AA00000EB400004EB80005861D0B21428ECD366
:101AB000C0EBC00000EB400004EB8000002141615E
:101AC00003488461016210BD7C0F00207C0E002061
:101AD000A8000020002203E0491E00F8012B89B273
:101AE0000029F9D17047000010B578210E48FFF7A2
:101AF000F1FF0D4B002000EB400103EBC10101F1B0
:101B000018024A60401C09A280B24A610428F2D33C
:101B100000EB400003EBC0000021416003A14161E4
:101B20000348036010BD0000B01600203F00000015
:101B3000DC00002010B560210D48FFF7CBFF0C4BF7
:101B40000020411C0A4689B200EB400001EB410134
:101B500003EBC10143F8301090B20328F1D300EB3E
:101B60004000002143F830100248036010BD00001F
:101B700028170020E000002070B5FEF7D3FA0E4CC5
:101B80000546207898B9607888B900F019F80B48B4
:101B9000E27850F82210E161A078824207D0C86B49
:101BA000401CC863A068401CA060FEF7D2FA28461B
:101BB000BDE87040FEF7BABAA80000207C0E0020F5
:101BC0000649054A01F128030879105C1B5CD25CC8
:101BD00002EBC000C8707047844E0008A8000020C7
:101BE0002DE9F05F9846DDE90ABA91460E460546B2
:101BF000FEF798FA314FBC69002C5BD061691C3448
:101C0000B961FEF793FA44F81C6CA5760026267697
:101C10006676666144F810BC44E906A90C9824F87D
:101C20000C0C24F80A8CE808E6772077012305F0ED
:101C3000070103FA00F2E176A27703FA01F2627774
:101C400026606660E660A6602662A6626662E6625C
:101C5000002026631C3C04EB8001401C0E6510F044
:101C6000FF00F8D02046FFF74FFB2046FFF7E8FBC8
:101C7000FEF758FA0146124840F82540386AC4E990
:101C8000050600B184613C6294F83A003A79104349
:101C900038710A4A14F8380F28326478135C2343E9
:101CA0001354B879401CB8710846FEF73FFA00207B
:101CB000BDE8F09FFEF73AFA4220F9E7A8000020BD
:101CC0007C0E0020054CFEF72DFA2169491C21618C
:101CD000FEF72CFAFFF7B6FBF5E70000A80000209E
:101CE000D30707D0920705D50022002902D004C0EF
:101CF000491EFAE77047000001490862704700007A
:101D000000000E420021184A2A280AD02C280FD0A1
:101D10001179164B052910D0062910D008291FD19A
:101D20001BE0124811707430104A436807CA184704
:101D30001079401C107151717047187010E0517982
:101D4000303811B101290BD103E000EB80004000D5
:101D500001E059780844587002E0517919448870BC
:101D60005079401C5071704720000020940A0020D8
:101D700010B50021284B8CB02A2810D02C2824D054
:101D80001A792649112A42D2DFE802F024262828AF
:101D900028282828282828282828363A3E0019707C
:101DA0001E490D2210316846FEF723FA1B481E22F9
:101DB0006A301A49846804A8FEF71BFA0DF1100C6A
:101DC0009CE80F00A0470CB010BD1879401C18719A
:101DD0005971F8E708701AE0487018E05C793038FB
:101DE00014B1012C13D103E000EB8000400001E0AE
:101DF0008C5C204488540AE05A791144887306E0C8
:101E00005A791144C87402E05A7911440876587915
:101E1000401C5871D7E70000200000209E0A0020D7
:101E2000F0B500255D4CA3B02A2817D02C282BD064
:101E3000A0F1300101EB810326795B06584A1B0EA5
:101E4000132E29D2DFE806F0A62529344B629334FD
:101E50004B6293344B6293344B629300504925702C
:101E6000E5713A2210316846FEF7C3F94C484A2220
:101E70004C304B49C4680FA8FEF7BBF90FAE96E88B
:101E80000F00A04723B0F0BD2079401C2071657180
:101E9000F8E731287ED1E5717CE0607910B1012846
:101EA00078D101E0137075E010780844107071E08B
:101EB000607910B101286DD106E0E07900EB4000B7
:101EC00002EB4000837065E0E07900EB400302EB39
:101ED0004302401C937819449170E0715AE0607994
:101EE00010B1012856D107E0E07900EB400002EB89
:101EF000400000F8033C4DE0E07900EB400002EBCD
:101F0000400010F8032D1144017043E0637923B1C0
:101F1000012B12D0022B3DD11FE001EBC10000EBE1
:101F200001104FF6FF7101EA8001E07900EB4000FB
:101F300002EB400020F8021C2CE0E17900EB80006D
:101F400001EB410102EB41014FF6206331F8022D14
:101F500003EB4000104408801CE0E07900EB4000F7
:101F600002EB400030F8022D1144018012E060794C
:101F700010B101280ED105E0E07900EB400002F835
:101F8000103007E0E07900EB400012F810301944FF
:101F900002F810106079401C607173E72000002087
:101FA000BC0A00202DE9F0470025984C8EB04FF078
:101FB000030A2A282AD02C2843D0A0F1300202EBB1
:101FC000820149060B0E02EB4201C1EBC2114FF632
:101FD000FF7505EAC10700EBC0018D4D01EB001153
:101FE00005EB81068B4D00EB800105EB41058A492D
:101FF00094F804C091F80390BCF1090F2FD2DFE8E8
:102000000CF025404265679193A6B90083A000F0CB
:10201000C5FE8149257084F806A014221031684657
:10202000FEF7E7F87C48242298307B49046805A82D
:10203000FEF7DFF805AE96E80F00A0470EB0BDE84A
:10204000F0872079401C20716571F7E760790628D8
:1020500005D2DFE800F003050A0C1012CB70D0E0C7
:1020600009EB02000830C870CBE00B71C9E00879B9
:1020700010440871C5E04B71C3E0487910444871C1
:10208000BFE08871BDE0644894F805C04089BCF1A8
:10209000090F07D2DFE80CF005070B0DB51113157A
:1020A0001700CB71ADE0C8791044C871A9E00B727C
:1020B000A7E0087A10440872A3E04F81A1E0304401
:1020C00002E0284400E0104448819AE0087398E058
:1020D000514894F805C090F80D90008ABCF10A0FA1
:1020E00009D2DFE80CF005090C10128E16181A1C24
:1020F000642042434A7384E009EB050001E009EBE8
:10210000020048737DE08B737BE0887B104488730A
:1021100077E00F8275E0304402E0284400E010448C
:1021200008826EE088746CE03B486379808A052BF6
:1021300067D2DFE803F00305076609008F8260E0DD
:10214000304402E0284400E01044888259E03248DC
:102150006379808B052B54D2DFE803F00305075326
:1021600009008F834DE0304402E0284400E0104431
:10217000888346E02848667945788078062E40D2E4
:10218000DFE806F00305111333358B7039E0104496
:10219000C0B28870B9F1170F33D9A9F11802CA700B
:1021A000401C88702DE04B702BE02A44D2B24A705C
:1021B0000D2A26D2DFE802F0250E070E120E120EAF
:1021C0000E120E120E001C281BD91C38887081F8C4
:1021D00001A016E01F2814D91F3802E01E2810D9CC
:1021E0001E388870521C4A700BE00B7009E00878AA
:1021F0000C2D1044C0B2087003D901224A70401C53
:1022000008706079401C607118E700002000002011
:1022100040EDFFFF20FEFFFF700A00204750524DA7
:10222000435F43616C6C4261636B0000044A0029A8
:10223000D16901D0014300E08143D16170470000C2
:1022400000100240044A0029916901D0014300E0D6
:10225000814391617047000000100240014908600D
:10226000704700004004424210B500F027F84FF4D8
:102270008034204600F0B6F800F01AF901281CD18D
:10228000002000F0A5F8002000F0E0F8A01100F018
:10229000D3F84FF4E011204600F0E8F8012000F0F8
:1022A000DFF8392000F074F80028FAD0022000F09E
:1022B000F5F800F085F80828FBD110BD0C4801683E
:1022C00041F00101016041680A4A11404160016822
:1022D000094A11400160016821F4802101604168D0
:1022E00021F4FE0141604FF41F018160704700003E
:1022F000001002400000FFF8FFFFF6FE30B5204A54
:102300005168204B11F00C0103D0042901D0082999
:1023100001D0036012E05168536801F470114FF06E
:10232000020413F4803F04EB914102D053689B03F5
:1023300001D5154B00E0134B5943016051680F2341
:1023400003EA1111114B5C5C0168E1404160546883
:10235000072505EA14241C5D21FA04F484605468FE
:1023600005EAD4241B5DD940C1605268032303EA07
:102370009232064B1B1F9A5CB1FBF2F1016130BD3A
:102380000010024000127A0000093D008000002089
:10239000034600205909094A01290AD002290AD016
:1023A000516A03F01F02012393400B4200D0012029
:1023B00070471168F5E7116AF3E70000001002406A
:1023C0000248406800F00C00704700000010024016
:1023D000034A516821F0F001014351607047000049
:1023E000001002400B490A6822F480320A600A6831
:1023F00022F480220A60B0F5803F07D0B0F5802F2C
:1024000003D1086840F4A02008607047086840F4D1
:102410008030F9E7001002400649002281F82020B0
:1024200081F82020012802D0042802D1052081F85B
:102430002000704700100240034A516821F4E06117
:10244000014351607047000000100240034A516888
:1024500021F4605141EAC000506070470010024012
:10246000014908667047000000004242034B5A6869
:10247000084322F47C121043586070470010024059
:1024800001490860704700003C04424202490A6A60
:1024900002430A627047000000100240034A51687C
:1024A00021F0030101435160704700000010024019
:1024B00018B500204FF4A06400903120FFF768FFAA
:1024C0000099491C0091A14201D00028F5D031208B
:1024D000FFF75EFF002800D0012018BD4FF4003048
:1024E000FEF772BA02490A8882430A8070470000E8
:1024F0000428004010B501214FF0C050FFF796FEB0
:102500000120FFF7F9FBFEF737FA0120FFF784FF00
:102510004120FFF73DFF0028FAD04FF48070FFF70D
:10252000B5FF0120FFF7ACFF00F0FEF900F0F4F971
:102530000121084600F04CF900F0EEF947F6FF7073
:1025400000F0DAF9BDE8104000F0E6B90248018871
:1025500041F01001018070470428004002480188C2
:1025600021F0100101807047042800402DE9F0435C
:10257000304800882F49091D0988DFF8BC8001EB2D
:102580000045B5FBF8F32D482D4E018899422FD018
:10259000038040F2B2744FF4B7774FF4B6790FE08E
:1025A0002046FEF794FB38B1BB4202D3A3F5B773C4
:1025B00004E0641CA4B205E0A3F26D13641CA4B291
:1025C0004B45EDD8B48000241E4F0BE0B088FEF7D9
:1025D0007EFB08B1012C28D0385D984204D81B1A24
:1025E000641CA4B21C2BF1D2641CB4715B1CF3718B
:1025F000B5FBF8F108FB11504FF46161B0FBF1F24B
:102600003270B0FBF1F201FB12033C22B3FBF2F398
:102610007370B0FBF1F301FB1300B0FBF2F102FBAE
:102620001100B0700020BDE8F0831D2BDCD31D3BF2
:10263000D6E7000018280040805101006800002003
:10264000180B0020784E000806490988C2B21140D4
:10265000044A121F1288024202D009B101207047B9
:1026600000207047042800401CB50420FEF78EF9B6
:102670004AF2A554A04213D017A000F08FFBFFF739
:1026800039FF08200090034601901022092140F2F2
:10269000E37000F0A9F821460420FEF77FF917E067
:1026A0007B20FFF775FE08B112A004E07A20FFF747
:1026B0006FFE10B117A000F071FB1EA000F06EFBC2
:1026C00000F032F90121084600F082F800F024F908
:1026D000BDE81C40FEF731BB525443206E6F74209E
:1026E00079657420636F6E666967757265642E2EF6
:1026F0002E2E0A00506F776572204F6E2052657340
:102700006574206F636375727265642E2E2E2E0AB7
:102710000000000045787465726E616C205265732C
:102720006574206F636375727265642E2E2E2E0A97
:10273000000000004E6F206E65656420746F20639A
:102740006F6E666967757265205254432E2E2E2E69
:102750000A0000000EB50120FFF776FFB0B101209E
:10276000FFF7C0FE00F0D8F8FFF700FF0E48007832
:1027700032280BD10D480178837842788DE80E001D
:10278000C379827981880AA000F008FB0220FFF754
:102790005BFF002806D00220FFF7A4FEBDE80E4034
:1027A00000F0BAB80EBD000008000020180B002091
:1027B0002534642F253032642F25303264202530B3
:1027C00032643A253032643A253032640A0000001F
:1027D000044A0029118801D0014300E0814311809F
:1027E00070470000002800402DE9F05F9946DDE9C0
:1027F0000AB392468846054600245A4649462CA00C
:1028000000F0CCFAA5F2B270822802D30120BDE814
:10281000F09F40F2B2732C4E2C4F08E01846FEF7A2
:1028200056FA08B1344400E03C445B1C9BB2AB4216
:10283000F4D3A8F10100C6B20023254FDFF894803D
:102840000EE0F85C40F2A321484304EBC014284694
:10285000FEF73DFA10B1012B00D144445B1C9BB242
:10286000B342EED340F2A3210AFB01F0194904EB75
:10287000C01049420144C9EB4912C2EB092001EBE7
:102880000011CBEB0B1001EB80000B99441800F00A
:1028900043F801214FF0C050FFF7C8FC0120FFF7BB
:1028A0002BFA204600F018F800F036F80020AEE7CA
:1028B0005254435F53657420253032643A253032D8
:1028C000643A2530326400000085E2018033E10182
:1028D000784E00088051010000B50246FFF736FE31
:1028E0000449100C0880081D02805DF804EBFFF716
:1028F00035BE00001828004000B50246FFF726FE4E
:102900000449C2F303400880081D02805DF804EB0F
:10291000FFF724BE08280040024801888906FCD53C
:1029200070470000042800400448018821F0080195
:10293000018001880907FCD5704700000428004089
:10294000704700000CB500222648009201920168F1
:1029500041F4803101604FF4A063016801F400315B
:1029600001910099491C0091019911B9009999426E
:10297000F3D10168890333D5012101911A490A680D
:1029800042F010020A600A6822F003020A600A6834
:1029900042F002020A60416841604168416041685A
:1029A00041F480614160416821F47C1141604168DB
:1029B00041F4E8114160016841F0807101600168F3
:1029C0008901FCD5416821F003014160416841F073
:1029D000020141604168C1F381010229FAD10CBDB5
:1029E00001920CBD001002400020024010B5FDF71E
:1029F00099FB064A1178491C1170FDF797FBFEF709
:102A0000CDFDBDE81040FEF767BA0000A800002029
:102A10000F4810B5016841F00101016041680D4A9D
:102A20001140416001680C4A11400160016821F4C5
:102A300080210160416821F4FE0141604FF41F01D3
:102A40008160FFF77FFF05494FF00060086010BD0F
:102A5000001002400000FFF8FFFFF6FE08ED00E066
:102A600010B586B001210520FFF7ECFB012188039A
:102A7000FFF7E8FB4FF40070ADF8100018208DF858
:102A8000130003201C4C8DF8120004A92046FDF70A
:102A9000A1FF2115ADF8101004218DF8131004A921
:102AA0002046FDF797FF04A92046FDF793FF4FF45A
:102AB000165000900020ADF80400ADF80600ADF807
:102AC0000800ADF80C000C200C4CADF80A0069466B
:102AD000204600F0E3F8012240F22551204600F0A4
:102AE000C4F80121204600F090F84021204600F073
:102AF00089F806B010BD0000000801400038014010
:102B000010B5084C40F22551204600F08FF80028FF
:102B100007D0204600F018F9BDE81040C0B200F020
:102B20002BB910BD0038014030B585B0012105201A
:102B3000FFF788FB01214804FFF778FB0424ADF878
:102B4000104018208DF8130003201C4D8DF8120042
:102B500004A92846FDF73EFF0821ADF810108DF8B6
:102B6000134004A92846FDF735FF04A92846FDF7C0
:102B700031FF4FF4165000900020ADF80400ADF87E
:102B80000600ADF80800ADF80C000C200C4CADF8B8
:102B90000A006946204600F081F8012240F22551E2
:102BA000204600F062F80121204600F02EF8402176
:102BB000204600F027F805B030BD000000080140B5
:102BC0000044004070B50E4D40F225542146284681
:102BD00000F02CF8002811D000222146284600F0F1
:102BE00044F8284600F0B0F8C0B202F025F82146BB
:102BF0002846BDE87040012200F037B870BD0000E3
:102C000000440040C943018070470029818902D0F7
:102C100041F4005101E021F40051818170470246E6
:102C2000002012880A4200D00120704770B501F0E0
:102C30001F0501260024C1F3421306FA05F2012BF9
:102C40000FD0022B0FD0838A4FEA11210088134244
:102C500006FA01F600EA060001D000B10124204680
:102C600070BD8389F0E7038AEEE710B5C1F3421324
:102C700001F01F040121A140012B07D0022B07D036
:102C80001430002A026805D00A4304E00C30F8E74B
:102C90001030F6E78A43026010BD000030B50446EC
:102CA000008A85B00D464CF6FF710840E988014363
:102CB0002182A0894EF6F3110840A9882A89114380
:102CC0006A8902431143A181A08A4FF6FF4108405F
:102CD000A9890143A1826846FFF710FB1948844285
:102CE00001D1039800E00298A189090400EBC0011A
:102CF00001EB0010296801D5490000E08900B0FB14
:102D0000F1F06422B0FBF2F109010B096FF0180534
:102D10006B4300EB8300A3891D044FF0320306D5FB
:102D200003EBC000B0FBF2F000F0070005E003EB9E
:102D30000010B0FBF2F000F00F000843208105B056
:102D400030BD0000003801408088C0F308007047A3
:102D5000C1F308018180704710B5064C014620463A
:102D6000FFF7F6FF80212046FFF759FF0028F9D032
:102D700010BD00000038014010B5064C0146204649
:102D8000FFF7E6FF80212046FFF749FF0028F9D032
:102D900010BD000000440040FEE700000FB4054BEA
:102DA00010B503A9044A029800F014FC10BC5DF8A9
:102DB00014FB00004D4000086C000020490050EA60
:102DC000C12018BF04204A0D18BF40F0010040F296
:102DD000FF72B2EB515F08BF40F00200012808BF4C
:102DE000052070472DE9F74F144694B00021C4E93F
:102DF00002111599079121F00045C9498D4206DC61
:102E00001599C4E9000117B00020BDE8F08FC5494D
:102E1000DFF814A3A9423CDD0799C44E0029C44F32
:102E2000C44A1599534619DDFDF79DFA554506D05C
:102E3000C14AC24BFDF797FAC4E900010AE04FF01E
:102E4000D352BE4BFDF78FFA32463B46FDF78BFA65
:102E5000C4E9000117B00120BDE8F08FFDF7E2F9E9
:102E6000554506D0B44AB54BFDF7DCF9C4E900017D
:102E70000AE04FF0D352B14BFDF7D4F932463B464E
:102E8000FDF7D0F9C4E9000117B04FF0FF30BDE8FD
:102E9000F08FAB49A942159978DB21F000418346B8
:102EA0008846A84AA84BFDF764FA0022A74BFDF715
:102EB000B9F9FDF774FB0990FDF753FB06460F4681
:102EC0009C4A5346FDF755FA43465A46FDF74EFADB
:102ED00080468A46984A994B30463946FDF749FA6A
:102EE0002A0D01250B9242465346FDF73FFA032D6A
:102EF000C4E9000139D00B98C1F30A51401A05EB1F
:102F000045111139814230DA9148C346784400EBCB
:102F10000510CDF80CA00C90D0E9002330463946BE
:102F2000FDF727FA02460B4604910690584603998E
:102F3000FDF719FA80468A4602460B465846039921
:102F4000FDF711FA049B069AFDF70DFA83460C98DB
:102F500003913946D0E902233046FDF70AFA5A4672
:102F6000039BFDF700FA6D1CBDE707980028A2BF80
:102F7000099817B0BDE8F08F616881F00041616089
:102F8000099817B04042BDE8F08FFFE784461598D6
:102F9000C1F31301C0F30A50A0F2F5304FEA6018F4
:102FA00000F01F06C6F12000139000200690079045
:102FB00041F4801E05206D4676B1664A08EB00019B
:102FC0007A4452F8213002EB8101B3404A681399E8
:102FD00022FA01F1194305E05F4908EB0002794448
:102FE00051F82210A1FB0E27A1FB0C131A449A42A0
:102FF00034BF0123002303EB070A05EB8003D3E969
:1030000001B70F448F4234BF0121002193448B4408
:1030100011B1934502D903E0934501D2012100E0AB
:103020000021C3E901B7514445F82010011EA0F169
:103030000100C1DC0298059F00F10050800F129042
:103040000298DDE903568000FDF78BFA8346284697
:103050000D91FDF797FA6FF01D02FDF76BFACDE9C0
:103060000E013046FDF78EFA6FF03D02FDF762FA71
:1030700080468A463846FDF785FA6FF05D02FDF717
:1030800059FA0746424653461191FDF7CBF8DDE960
:103090000E23FDF7C7F85A460D9BFDF7C3F8002530
:1030A0000E465A4628460D9BFDF75DF9DDE90E23D5
:1030B000FDF759F942465346FDF755F93A46119B3B
:1030C000FDF754F9DFF898A0244A5346FDF751F96B
:1030D00007468846234A244B31462846FDF749F9DE
:1030E0003A464346FDF79EF8074688464FF0A84209
:1030F000534631462846FDF73CF93A464346FDF72C
:1031000091F8159A12F0004F04D0129A81F0004104
:1031100052421292C4E90001129817B0BDE8F08F34
:10312000FB21E93F7CD90240FB21F93F7370032E5C
:103130008A19A33B000040543163621A61B4D03D48
:10314000FB21394183C8C96D305FE43F0000E03F97
:103150008821000004210000E6200000182D4454BE
:10316000FB21F93D3326A611460B113C2DE9FF4DFD
:1031700021F0004807460C46B8F1795F08DAFDF700
:103180000EFA002801BF0020324904B0BDE8F08DDE
:103190003A46234610461946FDF7EBF80546024627
:1031A0002D480E460B460621784400F05DF82A466D
:1031B0003346FDF7DEF8DDE9022382468B463846CA
:1031C0002146FDF7D6F804460F4652465B46284690
:1031D0003146FDF7CEF822463B46FDF7C4F80746D8
:1031E0008A464FF0FF3228463146FDF7A3F91B4AC5
:1031F00090450ADA3A465346FDF7B5F804B0002286
:10320000BDE8F04D134BFDF7B1B8154A4245A8BFD4
:10321000A8F500154FF00004B8BF124D22462B460A
:10322000FDF7A1F80646884622462B4600200949AC
:10323000FDF799F804460D463A4653463046414656
:10324000FDF791F804B022462B46BDE8F04DFDF79E
:103250008DB800000000F03FB41E00003333D33FB0
:103260000000E93F0000D23F2DE9F0414F1E00EB86
:10327000C7010446D1E9000115461E4637F0060293
:103280000DD02A463346FDF774F87F1E04EBC703C2
:10329000D3E90023FCF7C6FF37F00602F1D1022F75
:1032A00025D0042F13D0062F18BFBDE8F0812A4681
:1032B0003346FDF75EF8D4E90A23FCF7B3FF2A464C
:1032C0003346FDF756F8D4E90823FCF7ABFF2A464E
:1032D0003346FDF74EF8D4E90623FCF7A3FF2A4650
:1032E0003346FDF746F8D4E90423FCF79BFF2A4652
:1032F0003346FDF73EF8D4E90223FCF793FF2A4654
:103300003346FDF736F8D4E90023BDE8F041FCF779
:1033100089BF00002DE9FF4D054621F0004084B033
:103320000C46B0F1795F0BDA2846FFF747FD042819
:1033300008BF00F07FF8284608B02146BDE8F08DB0
:103340002A460B461046FDF714F806460F462A4655
:103350002346FDF70EF8804626488A4632463B460D
:1033600005217844FFF780FF83461098029160B3EF
:10337000214A224B40465146FCF7FBFFCDE90001B4
:103380005A4640465146029BFCF7F3FF8246884668
:10339000DDE906014FF0FF32FDF7CCF85246434617
:1033A000FCF7E1FF32463B46FCF7E3FFDDE906238D
:1033B000FCF7D9FFDDE90023FCF7D5FF08B02A466A
:1033C0002346BDE8F04DFCF7D1BF0B465A463046C8
:1033D0003946FCF7CEFF084A084BFCF723FF42466C
:1033E0005346FCF7C6FF08B02A462346BDE8F04D19
:1033F000FCF718BFFA1D0000495555555555C5BF76
:103400000022134610460149FDF725B80000F03FA1
:103410000122FDF78FB8FCF705BF002213461046C6
:103420001146FDF718B840F2013200204FF0E0419C
:10343000FDF780B8024A00201107FDF77BB80000B5
:1034400001FDFFFF02E008C8121F08C1002AFAD1DF
:1034500070477047002001E001C1121F002AFBD114
:10346000704700000149086070470000F800002024
:103470002DE9FF5FDDE90220010DDDF838B00243E0
:1034800018D044F61050A1F2FF3141430D140F98AB
:10349000012820D0A5EB0B00401C5FEA000A4FF08A
:1034A0000004474EDFF81C91A046504616D5CAF1DD
:1034B000000728E00F98012443A2012808D000212A
:1034C00000980F9BC0E90021C0E90243BDE8FF9FBF
:1034D0006FEA0B01F4E7CBF10000DEE7074612E0EC
:1034E000F80707D02246334640464946FCF741FFDD
:1034F000804689462246334610461946FCF739FF76
:1035000004460E467F10002FEAD1DDE90201BAF130
:10351000000F42464B4602DAFCF72BFF01E0FCF7B6
:103520009AFF04460E460022284BFDF76FF803D899
:103530004FF0FF30014607E00022254B2046314680
:10354000FCF770FEFDF7A0F9102409E0002C0ADB5F
:103550000A220023FDF788F8019B30321A55641EB9
:1035600050EA0102F2D1641C019AC4F1110314441F
:103570000F9A012A03D0012208430DD10AE0084323
:1035800004D000204FF0110B0F9080E7A3EB0B0548
:103590006D1E0DE05B4504DD4FF0000205F10105F5
:1035A00004E003DA4FF00002A5F10105002AECD097
:1035B00000980F99C0E90231C0E9004586E7000094
:1035C000000024400000F03F300000000000F04305
:1035D0000000E03F2DE9FF4F95B09B468946064627
:1035E00000250FE2252877D100242746F84A01213B
:1035F000059400E0044316F8013F203B01FA03F074
:103600001042F7D130782A2811D06FF02F0330788C
:10361000A0F13002092A16D8059A44F0020402EB00
:10362000820203EB42021044761C0590EFE759F842
:10363000042B0592002A03DA504244F4005405900A
:1036400044F00204761C30782E2816D116F8010FAB
:1036500044F004042A280DD06FF02F023078A0F136
:103660003003092B09D807EB870302EB4303C71884
:10367000761CF3E759F8047B761C30786C280FD061
:1036800006DC4C2817D068280DD06A2814D104E035
:10369000742810D07A280FD10DE044F400140AE009
:1036A00044F4801401E044F440147278824202D160
:1036B00004F58014761C761C307866280BD013DC59
:1036C000582877D009DC002875D04528F6D0462840
:1036D000F4D047281AD19DE118E0632835D064283A
:1036E00079D0652812D195E1702873D008DC67285D
:1036F000F1D069286FD06E280DD06F2806D1B5E0C3
:1037000073282CD0752875D0782874D05A4617990C
:1037100090476D1C75E1C4F30250022809D00328BC
:103720000DD0D9F8001004280DD00D6009F104095E
:1037300067E1D9F80010EA17C1E90052F6E7D9F8B5
:1037400000100D80F2E70D70F0E719F8041B8DF8FA
:10375000001000208DF80100EA46012003E059F82E
:1037600004AB4FF0FF3061074FF0000102D40DE0D1
:1037700008F101018846B9420FDA8045F8DB1AF8F2
:1037800008100029F4D108E008F1010188468142BF
:10379000FADB1AF808100029F6D105985B46A0EB71
:1037A000080721463846179A00F094FA284400EB9F
:1037B000080507E04DE029E10DE01AF8010B5A4633
:1037C00017999047B8F10108F7D25B462146384671
:1037D000179A13E142E00A220092C4F302524FF01A
:1037E000000A022A08D059F804CB032A4FEAEC71E8
:1037F0000AD00DE029E02AE009F1070121F00702D3
:10380000F2E802C1914609E00FFA8CFC4FEAEC7134
:10381000042A03D14FFA8CFC4FEAEC71002907DA35
:103820000A460021DCF1000C61EB02012D2202E0CE
:10383000220504D52B228DF80420012203E0E207A3
:1038400001D02022F7E7904659E00A2102E0102239
:103850000DE010214FF0000A00910BE010224FF014
:10386000000A44F004040827009203E008224FF005
:10387000000A0092C4F30252022A05D059F804CB80
:103880000021032A08D009E009F1070121F007020D
:10389000F2E802C1914605E01FFA8CFC042A01D12E
:1038A0000CF0FF0C4FF00008220728D5702806D036
:1038B000009B83F0100353EA0A0305D00EE0402278
:1038C0008DF80420012208E05CEA010206D03022D3
:1038D0008DF804208DF8050002229046009B83F0AD
:1038E000080353EA0A030AD15CEA010201D1620724
:1038F00005D530228DF804204FF001087F1E58288E
:1039000004D034A003900EA802900DE036A0F9E791
:1039100053466046009AFCF7A7FE84460398825CF3
:103920000298401E029002705CEA0100F0D10298F9
:1039300006A9081A00F1200A600702D524F4803491
:1039400000E00127574502DDA7EB0A0000E0002058
:1039500000EB0A01009005984144401A0590E003ED
:1039600006D45B462146179A059800F0B3F9054442
:10397000002706E001A85A46C05D179990476D1CC4
:103980007F1C4745F6DBE0030CD55B462146179AC2
:10399000059800F09FF9054404E030205A46179935
:1039A00090476D1C0099481E00900029F5DC08E046
:1039B000029802995A460078491C0291179990473B
:1039C0006D1CBAF10001AAF1010AF1DC65E1000009
:1039D00009280100303132333435363738396162E5
:1039E00063646566000000003031323334353637A9
:1039F00038394142434445460000000000F058F980
:103A00000544761C307800287FF4ECAD19B02846C8
:103A1000BDE8F08F620700D4062709F1070222F003
:103A2000070CFCE80223E14603F000485FEA080CBB
:103A300002D00FF2702C0DE05FEA045C02D50FF2A9
:103A4000682C07E05FEAC47C02D00FF2602C01E032
:103A5000AFF2700C4FF0FF3823F00043CDF850C0A8
:103A600065280CD006DC452809D046281DD04728FB
:103A70003DD13DE0662818D067287ED138E000218E
:103A8000112F01DB112000E0781CCDE9000106A90F
:103A90000EA8FFF7EDFCDDE90F010E9A039100215E
:103AA000009207F1010A04914DE04FF000400097A9
:103AB000CDE9011006A90EA8FFF7DAFCDDE90F0237
:103AC00003920E9B11990022DDF80CA00093049242
:103AD00011B9791C00EB010AB7EB0A0004D4C0F15C
:103AE000FF3007F1010A0490AAEB0700019044E0BF
:103AF000012F00DA01270021112F01DD112000E044
:103B00003846CDE9000106A90EA8FFF7B1FCDDE9B2
:103B10000F010E9A0391002104910092BA462107E9
:103B20000CD40399514500DA8A46BAF1010F05DD3C
:103B3000009AAAF10101515C302908D0B84202DA9A
:103B400010F1040F06DA0121CDE9011015E0AAF108
:103B50000101E9E7002805DC049901440491AAEB7E
:103B6000000102E0411C514500DD8A460499401ADB
:103B7000401C01904FF000400290200704D40198AF
:103B8000504501DBCDF8048000208DF84F000298ED
:103B90000DF14F07B0F1004F25D02B200E90029869
:103BA0004FF0020800280CDA404202902D200E90BF
:103BB00007E00A210298FCF741FD3031029007F836
:103BC000011DB8F10001A8F10108F2DC02980028FB
:103BD000EFD1791E0E980870307800F0200040F088
:103BE000450007F8020D12A8C01B00F10708149841
:103BF000007800B1012000EB0A01019801EBE071AF
:103C000005984144401A401E0590E00306D45B46E7
:103C10002146179A059800F05DF80544149800783D
:103C200018B15A46179990476D1CE00324D55B469E
:103C30002146179A059800F04DF805441CE00498B9
:103C4000002807DBDDE90301884203DD0098405CC2
:103C5000179901E0179930205A469047049805F1CA
:103C60000105401C04900198401E019004D12E20B3
:103C70005A46179990476D1CBAF10001AAF1010A42
:103C8000DDDC05E017F8010B5A46179990476D1CCB
:103C9000B8F10001A8F10108F4DC5B462146179A4F
:103CA0000598ABE62D0000002B000000200000006E
:103CB0002DE9F041044600251E461746880404D429
:103CC00005E039462020B0476D1C641EF9D5284612
:103CD000BDE8F0812DE9F041044600251E469046DE
:103CE000C80301D5302700E02027880404D505E06B
:103CF00041463846B0476D1C641EF9D52846BDE8DC
:103D0000F08100002DE9F04D8D4F21F0004A86B082
:103D100005460C46BA452ADBAAEB070028430AD021
:103D20008848824501DC1AD1CDB106B02846BDE8ED
:103D3000F04DFFF76DBB844A844B2846FCF719FB16
:103D400007460E46824A834B28462146FCF711FB64
:103D500006B03A463346BDE8F04DFCF763BA0120A1
:103D6000FFF780FB06B0BDE8F04DFFF756BB7A4881
:103D7000824542DABAF1795F0BDA2846FFF71EF87E
:103D8000042808BFFFF756FB284606B02146BDE8C9
:103D9000F08D2A460B461046FCF7EBFA83460246A6
:103DA0006E480E460B4606217844FFF75DFA5A46E8
:103DB0003346FCF7DEFA804669488A465A4633465F
:103DC00004217844FFF750FA5A463346FCF7D1FAFB
:103DD00000223B46FCF726FA02460B464046514677
:103DE000FCF739FB2A462346FCF7C3FA06B02A46FD
:103DF0002346BDE8F04DFCF715BA284624F00041F3
:103E000000223D463B46FCF7B1FA4FF0FF32FCF78B
:103E100091FB0646024653480F460B46062178445E
:103E2000FFF722FA32463B46FCF7A3FACDE9000140
:103E30004D4832463B4604217844FFF715FA324696
:103E40003B46FCF796FA00222B46FCF7EBF983463B
:103E500002913046394600F0A9FF804643480D469E
:103E6000504517DCDDE900015A46029BFCF7F3FAE6
:103E700042462B46FCF77DFA42462B46FCF7D2F928
:103E80000122FCF757FB304A304BFCF76CFA304A02
:103E9000304B4CE04FF0000A52460B464046FCF7D0
:103EA000C1F9CDE9031052462B4610461946FCF7DE
:103EB00060FA32463B46FCF759FADDE90332FCF77B
:103EC000CAFA06460F46DDE900015A46029BFCF796
:103ED000C2FA83460091012230463946FCF72AFB9C
:103EE000194A1A4BFCF742FA06460F460122404691
:103EF0002946FCF71FFB5A46009BFCF73AFA32466C
:103F00003B46FCF730FA06460F460122504629464A
:103F1000FCF710FB0E4DDFF858802A464346FCF7AD
:103F200025FA32463B46FCF721FA2A464346FCF77F
:103F30001DFA002CD8BF81F0004106B0BDE8F08D1D
:103F40000000F03F0000F07F075C143326A6913C90
:103F5000182D4454FB21F93F0000E03FDC11000024
:103F6000F2110000661100007C1100003333EF3FB6
:103F7000FB21E93F00B5244B21F0004287B09A4273
:103F8000DCBF0022134629DD204B9A4208D140B9FC
:103F90004FF00100FFF766FAFFF73FFA07B000BDE8
:103FA00003DBFFF735FA07B000BD02AAFEF71AFFE0
:103FB00010F0030104BF0DF1080C9CE80F000DD0B8
:103FC000012001290ED0022914D00DF1080C009017
:103FD0009CE80F00FFF79EF907B000BDFFF7C6F899
:103FE00007B000BD0DF1080C00909CE80F00FFF732
:103FF00091F905E00DF1080C9CE80F00FFF7B6F809
:1040000007B081F0004100BDFB21E93F0000F07FD7
:10401000312801D100F0F0BE704700007FB507A045
:1040200000240FC88DE80F006D46285DFEF7A4FE42
:10403000641CE4B20E2CF8D37FBD0000B56206010B
:1040400006000102000100001188000010B5040004
:1040500002D0E0B2FEF780FE204610BD86B027A059
:10406000FEF79CFE314C324D324E334F8DE8F0005E
:104070002A482B492B4A2C4BFCF78EFDFCF771FA92
:104080002E4DC5E90201FFF7C9FFDFF8B4902D4EB0
:10409000DFF8B4804FF4805704AA0021D9F800005B
:1040A000FCF78AFF044639464046FCF7E1FC2078DD
:1040B000012804D002280AD0032819D114E062781C
:1040C00031680020885421A0FEF768FE10E0606887
:1040D00002782A7021789DF810301DA0FEF75EFE50
:1040E0002878FFF795FF03E06178306800F040F82A
:1040F00039464046FCF7BEFCCEE700003D3D3D3D65
:104100003D3D3D3D3D475053205461736B205374FA
:104110006172743D3D3D3D3D0A000000CB67791E54
:10412000DC9D36404D9F1D705D825C4022C2BF0801
:104130001A8B36401F2DCE18E6795C40080000200F
:104140000000002078000020000C014025730A00C8
:104150004D515F747970653D25642C6465627567A7
:104160004D6F64653D25642C6572723D25640A00BF
:1041700070B50D460446C9B200F02AFDA0780128AA
:1041800013D1E078022810D12946204600F05EFEC7
:10419000FCF7E7F90022054BFCF75DF9BDE870403C
:1041A00002460B4602A0FEF7F9BD70BD00408F40ED
:1041B00068416363203D20252E32660A000000001E
:1041C00000B585B0FCF700F8FCF73AFEFCF7EEFB13
:1041D0004022029203200021CDE90310064B064A3B
:1041E000CDE900030346FC320448FDF7D7F8FDF79C
:1041F00073F805B0002000BDFC000020F90800089D
:1042000070B50D460646002403E0305DFCF734FC33
:10421000641CAC42F9DB70BD2DE9F04D16460F462B
:1042200094B01C4621F0004123F00042002814BF46
:104230004FF0010C4FF0000C0CEB470CFE4B0CEB5D
:1042400003054FEA630C65452BD3350018BF0125E4
:1042500005EB44051D44F94B9D4222D3F84B52EA2D
:10426000060C02D09F4205D148B914B0002019466F
:10427000BDE8F08D002808BF4FF0000C01D04FF0D2
:10428000010C0CEB470313F5001F0AD8002E14BFD6
:104290004FF0010C4FF0000C0CEB440313F5001F22
:1042A00007D914B0324623463946BDE8F04DFFF732
:1042B000B2B8DFF890834FF0000A002FB8BF424534
:1042C00023DAE14B9A42A8BF4FF0020A1DDADC4B19
:1042D00093421ADCDD4B03EB2253142B08DDC3F1B0
:1042E000340C26FA0CF303FA0CFCB4450DD108E0AB
:1042F0005EB9C3F1140C22FA0CF303FA0CFC9445DA
:1043000003D103F00103C3F1020A51EA00031BD1F8
:10431000002C19DA002F18BFBAF1020F02D0BAF13F
:10432000010F07D00220FFF79DF814B0BDE8F04D53
:10433000FFF766B80220FFF795F8FFF761F814B0B1
:1043400081F00041BDE8F08D330070D1424525D1A8
:1043500007F1804212F5801201BF00280020B84901
:1043600014B008BFBDE8F08DB548884207DC002CCA
:10437000A1BF1846214614B0BDE8F08D07E0002C1F
:10438000BFBF184684F0004114B0BDE8F08DB049BD
:104390007944D1E9000114B0BDE8F08DDFF8A0C286
:1043A00062452AD1002C24DA39B1414517D10028C1
:1043B00004BF002002461CD106E040B10220FFF7F6
:1043C00051F8FFF730F80A46394600F0D7BA9D4A4F
:1043D000394614B0002062F31E01BDE8F08D08DA02
:1043E00014B03B46BDE8F04D024600206146FCF7A4
:1043F00032B814B03946BDE8F08D414517DAB4F152
:10440000804F0CD0A4F10053B3F1FF530FD13B1EEA
:104410000DDB14B01946BDE8F04D00F0C7BC3B46BB
:1044200014B00246BDE8F04D1946FBF7A2BF0500E7
:1044300027F000433AD1E1B1414537D1002F06DDE5
:10444000002CA1BF0020414614B0BDE8F08D002F24
:1044500001DD002C1FDB002F16DA002C14DBBAF173
:10446000010F4FF0000014BF76497A4914B0BDE83F
:10447000F08DBAF1020F18BF002F0CD0BAF1010F66
:1044800009D1002F07DA0BE0002FB8BF002C0DDA9E
:10449000BAF1010F04D0002014B00146BDE8F08D40
:1044A00014B000204FF00041BDE8F08D4FF001083E
:1044B00008EBE77CCDF814C05CEA0A0C0DD0DFF8FD
:1044C00098C162457EDDDFF894C1654B624512DD1F
:1044D0008B420ADB002C18DB23E00120FEF7C2FF31
:1044E00014B0BDE8F04DFEF798BF554A8A4202DC91
:1044F000002C0ADC15E0994202DA002C11DA04E003
:104500004F4B994219DD002C0BDD0220FEF7AAFF6C
:10451000FEF789FF4B4A14B061F31E021146BDE855
:10452000F08D0220FEF79EFFFEF784FF444A14B090
:1045300061F31E021146BDE8F08D00223946FBF7FB
:1045400012FF07460D466FF00102FBF7F3FF4FF035
:104550005532444BFBF70AFF3A462B46FBF709FF5F
:104560000022414BFBF702FF80468B463A462B4622
:1045700010461946FBF7FDFE42465B46FBF7F9FE87
:1045800088460E904FF0C042384B38462946FBF71C
:10459000F0FE83460091364A344B41460E98FBF7B5
:1045A000E8FE80460191334A334B38462946FBF7F3
:1045B000E0FE4246019BFBF7D6FE0D4602460B4647
:1045C0000C9000E011E058460099FBF72BFE002705
:1045D00088465A463846009BFBF7C5FE2B460C9A88
:1045E000FBF7C4FE024600F079B90020B1F5801F48
:1045F00007DA352228461946FBF79CFF05466FF07F
:10460000340000EB2150A0F2FF300190C1F3130001
:1046100040F07F6141F04051029118498842D8BF73
:104620004FF0000B35DD16498142C8BF4FF0010B3A
:104630002FDC4FF0000B25E0FFFF1F00FFFF0F00F6
:104640000000F03F0000F07F0000404301FCFFFF4E
:10465000FC0C00000000F0FF0000E0410000F0430F
:10466000FFFFEF3F5555D53F0000E03F4715F73FAF
:10467000FE822B6544DF5DF80BAE543E8E9803003E
:104680007AB60B000198401C01900298A0F58010AA
:104690000290FF480299784400EBCB000991D0E9E1
:1046A000002328460B931292FBF75DFE00910A90BF
:1046B00028460B9B129A0999FBF7B4FD02460B465C
:1046C0000020F449FBF7C7FECDE90C010B4602467A
:1046D00000990A98FBF74DFE0690EF4888460027A0
:1046E00078440299006810904FF0005040EA610051
:1046F00000EB8B4000F5002102910B9B129A109861
:10470000FBF731FE2A46099BFBF730FE3A4643464B
:10471000FBF72FFE0891129038464146029B109AF3
:10472000FBF727FE009B0A9AFBF720FE089B129AD4
:10473000FBF719FEDDE90C23FBF71BFE0B91069A34
:104740001290434610461946FBF713FE05460246F3
:10475000D2480B460A9106217844FEF785FD0A9B54
:104760002A460891029010461946FBF702FE089B64
:10477000029AFBF7FEFD0546099143463846194665
:10478000069AFBF74FFD0B9B129AFBF7F2FD2A46A8
:10479000099BFBF747FDCDE908013A464346104621
:1047A0001946FBF7E6FD0A910022BD4B0090FBF78E
:1047B00039FDDDE90823FBF735FD0D463A46B84BD8
:1047C0003846FBF7D0FD0A9B009AFBF7CCFDDDE9EC
:1047D0000823FBF7CBFDCDE908013A462B461046EE
:1047E0004146FBF7C6FD00910A90DDE9080143460A
:1047F000069AFBF7BEFD069088462B463A460B9973
:104800001298FBF7B6FD4346069AFBF70BFD804670
:104810000B4602460D9100990A98FBF703FD002014
:104820000F460546009B0A9AFBF79DFD42460D9BED
:10483000FBF79CFD88460E904FF06042994B28464E
:104840003946FBF796FD02910090974A954B4146F9
:104850000E98FBF78EFD80460391944A944B2846B0
:104860003946FBF786FD4246039BFBF7DBFC914A8A
:104870007A4402EBCB03D3E90023FBF7D3FC0546D4
:1048800007910198FBF76DFE0C9003912A46079B58
:1048900002990098FBF7C6FC874A7A4402EBCB03E7
:1048A000D3E9002393460193FBF7BCFC039B0C9ACE
:1048B000FBF7B8FC002788463846039B0C9AFBF7A9
:1048C00052FD5A46019BFBF74EFD029B009AFBF7F7
:1048D0004AFD2A46079BFBF749FD02460020069049
:1048E00005986C4DAAF10103184301D1734D069050
:1048F00000200B46049030462146FBF73AFD8246E5
:104900008B46234630461946049AFBF72CFD3A465F
:104910004346FBF72EFD52465B46FBF783FC0646FB
:104920008A463A46434621460498FBF722FD044650
:104930000F4632465346FBF775FC614A8B4691425F
:1049400021DBABEB020353EA000210D122463B46C7
:10495000FBF709FD804603915A4A5B4B30465146AE
:10496000FBF760FC4246039BFBF750FE27D2022078
:10497000FEF778FDFEF757FD0A46294614B062F3AC
:104980001E01BDE8F08D514B2BF000429A4216D328
:104990004F4A0BEB020353EA000208D122463B4682
:1049A000FBF7E1FC32465346FBF730FE07D8022006
:1049B000FEF758FDFEF73EFD0A462946DEE72BF0DE
:1049C00000404449444A01EB20514FF00008824224
:1049D00023DA481C4FF4801121FA00F058443F4A72
:1049E000C0F30A517A443E4BA1F2FF31CB4020EA9A
:1049F0000303C0F3130040F4801CC1F114001268DB
:104A00002CFA00F8BBF1000FB8BFC8F1000820462F
:104A10003946FBF7A8FC04460F4622463B46304683
:104A20005146FBF7FFFB4FF0000B5A462D4B584603
:104A30000391FBF79EFC00910A902B4A2B4B5846A2
:104A40000399FBF796FC0491029022463B46584698
:104A50000399FBF788FC32465346FBF787FC244A50
:104A6000244BFBF786FC049B029AFBF7DBFB074613
:104A70008A46009B0A9AFBF7D5FB04460E46009B2C
:104A80000A9AFBF770FC3A465346FBF76FFC33E09B
:104A90003E0900000000F03FAC090000AC08000037
:104AA0000000084009C7EE3FFD033ADCF5015B1446
:104AB000E02F3EBE840700004A0700000000F0BF60
:104AC00000009040FE822B654715973C00CC90403B
:104AD00000346F3F01FCFFFF0000E03FA80600002C
:104AE000FFFF0F00432EE63F396CA80C615C20BE2F
:104AF000EF39FAFE422EE63F0746224633460F9133
:104B000010461946FBF735FC834602462E488A4676
:104B10000B4605217844FEF7A7FB5A465346FBF7A0
:104B200028FC22463346FBF721FC82468B463A4658
:104B3000204631460F9BFBF71CFC3A460F9BFBF7C8
:104B400071FB0F460A9000224FF0804350465946B1
:104B5000FBF709FC0391009052465B462046314624
:104B6000FBF707FC039B009AFBF775FC3B460A9A90
:104B7000FBF7F9FB22463346FBF7F5FB0022134B0C
:104B8000FBF7F4FB0E46044601EB0851081500281C
:104B900010DC424620463146FBF7CCFCFEF70EF90E
:104BA000042808BFFEF746FC424620463146FBF784
:104BB000C1FC044606980B4614B022462946BDE8BF
:104BC000F04DFBF7D6BB0000200500000000F03FD1
:104BD0002DE9F0410E46054600240B4F07E03878DA
:104BE00033280BD0285DFEF7B7F8641CE4B2B4425A
:104BF000F5D3BDE8F04105A0FEF7D0B8295D04A0CB
:104C0000FEF7CCF8F1E70000080000200A000000E1
:104C10002578200010B5054A054BFBF7AAFBBDE837
:104C200010400022034BFBF716BC00004AD8124D7F
:104C3000FB210940008066402DE9F04704462F4ED5
:104C4000304801253178DFF8B8C00068DFF8B89047
:104C500000274FF0030801290ED009F1C801242CC8
:104C600030D0B52C45D07078012803D170680C5431
:104C7000401C7060BDE8F087F37803EBC30101EBE3
:104C80000312716809EB82025454491C71602A2C8A
:104C900013D0B478012C12D0022CEBD1377086F8E7
:104CA00002808CF801108CF800509D43B260F570C2
:104CB000BDE8F0471249FCF7F1B9B570DAE7022018
:104CC000B070D7E77278012A09D1777032798CF801
:104CD00001208CF80080B1600949FCF7DFF9B7705A
:104CE0003570F07800EBC00101EB001109F82140AC
:104CF00001E00C7075707560BCE70000700000206A
:104D00001800002000000020220B002000B5254BD9
:104D100021F0004287B09A4203DC00221346009241
:104D20002BE0214B9A4208D140B94FF00100FEF729
:104D300099FBFEF772FB07B000BD03DBFEF768FBD3
:104D400007B000BD02AAFEF74DF810F003014FF0C6
:104D500001000DD0012914D002291AD00DF1080C40
:104D60009CE80F00FEF702FA07B081F0004100BD99
:104D70000DF1080C00909CE80F00FEF7CBFA07B08D
:104D800000BD0DF1080C9CE80F00FEF7EFF907B02D
:104D900000BD0DF1080C00909CE80F00FEF7BAFA78
:104DA000E2E70000FB21E93F0000F07F2DE9F04140
:104DB00006460F46FBF717FD04000D4618BF0120FD
:104DC000284320F00040C0F17F6000F1E040C00FB8
:104DD0000ED0301C18BF0120384320F00040C0F135
:104DE0007F6000F1E040C00F04BF0120FEF73AFBF6
:104DF00020462946BDE8F08170B588B00024202205
:104E00000B496846FBF7F5F90825294609A0FDF787
:104E1000C5FF6E4656F82400FBF7FDF9C1B256F8FF
:104E20002400FFF7EDF9641CAC42F3DB08B070BD61
:104E3000584E00087465737447505344656D6F2075
:104E40006C656E6768203D2025640A00417FD0F8BC
:104E50001A0061F31F60704714530008E8520008FD
:104E60009C52000820520008A45100085852000823
:104E700088510008EC5100081F1C1F1E1F1E1F1F19
:104E80001E1F1E1F000001000200010003000100A0
:104E90000200010004000100020001000300010003
:104EA00002000100050001000200010003000100F2
:104EB00002000100040001000200010003000100E3
:104EC00002000100060001000200010003000100D1
:104ED00002000100040001000200010003000100C3
:104EE00002000100050001000200010003000100B2
:104EF00002000100040001000200010003000100A3
:104F0000020001000700010002000100030001008F
:104F10000200010004000100020001000300010082
:104F20000200010005000100020001000300010071
:104F30000200010004000100020001000300010062
:104F40000200010006000100020001000300010050
:104F50000200010004000100020001000300010042
:104F60000200010005000100020001000300010031
:104F70000200010004000100020001000300010022
:104F80000200010000000000555555555555C53F1C
:104F90007D6FEB0312D6D4BF5544880E55C1C93F6F
:104FA0003B8F68B52882A4BF88B20175E0EF493F06
:104FB00009F7FD0DE13D023F4B2D8A1C273A03C046
:104FC000C88A599CE52A004059018D1B6C06E6BF32
:104FD00082922EB1C5B8B33F000000000000F03F40
:104FE000000000000000F83F00000000000000008A
:104FF0000000004003B8E23F000000000000000095
:1050000006D0CF43EBFD4C3E033333333333E33F22
:10501000FFAB6FDBB66DDB3F4D268F515555D53F4E
:1050200001411DA96074D13F65DBC9934A86CD3F1C
:10503000EF4E454A287ECA3F3E5555555555C53F0A
:1050400093BDBE166CC166BF2CDE25AF6A56113FFC
:10505000F16BD2C541BDBBBED0A4BE726937663EFE
:105060004C5555555555A53F7751C1166CC156BF86
:105070009015CB19A001FA3EAD529C804F7E92BE96
:10508000C4B1B4BD9EEE213ED43888BEE9FAA8BDB5
:10509000000000000000000000004054FB21F93F28
:1050A0003163621A61B4D03D0000601A61B4D03D32
:1050B0007370032E8A19A33B0000002E8A19A33BAC
:1050C000C14920259A837B390000000000000000C0
:1050D0006E83F9A22915444ED15727FCC0DD34F563
:1050E000999562DB4190433CAB6351FE61C5BBDEE9
:1050F0003A6E24B7E0D24D42EA2E49061C92D109FD
:105100001CEB1DFE3EA729B1F53582E88444BB2E79
:1051100026709CE9417E5FB439D69139F4395383C6
:105120008B5F849C3B28F9BDFF97F81F0F9805DE25
:105130008B112FEF1F6D0A5ACF7E366DB709CB2723
:10514000663F464F2DEA5F9EC7BA27757BF1E5EBB8
:10515000F739073DEA92528AB15FFB6B085D8D1FFC
:10516000A6F810111111813FD561C119A0012ABF04
:105170007DFEB157E31DC73EEB9C2B8AE6E55ABE88
:105180007CD5CF5A3AD9E53D2447504753562C3366
:105190002C332C30392C34312C34362C3233372C00
:1051A0002A3431002447504753562C332C312C30AD
:1051B000392C30332C32382C3034352C31392C30DA
:1051C000362C35322C3239362C32362C30392C31C3
:1051D000342C3132372C31332C31372C35322C30C2
:1051E00031342C31372A3732000000002447504731
:1051F0004C4C2C323233332E37353630362C4E2C45
:1052000031313335352E37333530372C452C30326C
:10521000333034382E30302C412C412A36330000C4
:105220002447504753412C412C332C30362C3137F6
:105230002C31392C30332C30392C32382C2C2C2C6E
:105240002C2C2C322E32352C312E33322C312E3860
:10525000332A3035000000002447504753562C3382
:105260002C322C30392C31392C34302C3333352C32
:1052700031382C32332C31322C3039382C2C32341A
:105280002C30312C3239372C2C32382C36322C3110
:1052900036322C32372A3737000000002447504777
:1052A00047412C3032333034382E30302C323233C8
:1052B000332E37353630362C4E2C31313335352EB2
:1052C00037333530372C452C312C30362C312E33BA
:1052D000322C35392E302C4D2C2D322E382C4D2C95
:1052E0002C2A3742000000002447505654472C31E6
:1052F00038322E35352C542C2C4D2C32322E38365B
:10530000372C4E2C34322E3335302C4B2C412A3353
:1053100046000000244750524D432C303233303485
:10532000382E30302C412C323233332E3735363054
:10533000362C4E2C31313335352E37333530372C32
:10534000452C32322E3836372C3138322E35352C2A
:105350003039303931382C2C2C412A3546000000A8
:10536000474E5A4441000000474E47474100000065
:105370004750474741000000424447534100000066
:105380004750475341000000474E524D4300000034
:105390004750524D43000000474E5654470000000E
:1053A0004750565447000000474E474C4C00000001
:1053B0004750474C4C0000004750545854000000E0
:1053C00042444753560000004750475356000000E0
:1053D000F053000800000020FC00000044340008E6
:1053E000EC540008FC0000204C1E0000543400085F
:1053F00000000000000000000000000000000000AD
:10540000000000000000000000000000000000009C
:10541000000000000000000047507878782C000061
:105420007053000880530008C853000890530008C8
:10543000A0530008B8530008C05300087853000870
:1054400060530008A85300089853000888530008C8
:1054500068530008B053000800000000000000007E
:105460000000000000000000000000000204060828
:1054700000000000010203040102030406070809FA
:1054800000A24A0400000000000000000102030422
:1054900006070809000000000000000000000000EE
:1054A00000000000000000000000000000000000FC
:1054B00000000000000000000000000000000000EC
:1054C00000000000000000000000000000000000DC
:1054D00000000000000000000000000000000000CC
:0C54E000000000000000000000000000C0
:04000005080000ED02
:00000001FF
