:020000040800F2
:1000000090270020010100089510000853100008F7
:1000100091100008F50E0008ED3400080000000003
:10002000000000000000000000000000E12F0008B8
:10003000F90E00080000000067010008CD3000083C
:100040001B0100081B0100081B010008512E0008BD
:100050001B0100081B0100081B0100081B01000810
:100060001B0100081B0100081B0100081B01000800
:100070001B0100081B0100081B0100081B010008F0
:100080001B0100081B0100081B0100081B010008E0
:100090001B0100081B0100081B0100081B010008D0
:1000A0001B0100081B0100081B0100081B010008C0
:1000B0001B0100081B0100081B0100081B010008B0
:1000C0001B0100081B0100081B0100081B010008A0
:1000D0001B010008F1310008C13200081B010008B3
:1000E0001B010008ED2C00081B010008DFF80CD0F4
:1000F00000F09AFC00480047554300089027002074
:100100000648804706480047FEE7FEE7FEE7FEE7B1
:10011000FEE7FEE7FEE7FEE7FEE7FEE7F530000854
:10012000ED000008EFF3108072B6704780F310887E
:1001300070471D484FF0FF010170002080F30988CF
:100140001A48012101701A484FF08051016062B6CF
:10015000FEE717484FF080510160704714484FF098
:1001600080510160704772B6EFF3098028B12038E2
:1001700080E8F00F0F490968086000B50E48804715
:100180005DF804EB0D480E490A78027009480D49E4
:100190000A680260106890E8F00F203080F3098848
:1001A0004EF0040E62B6704722ED00E0BA00002067
:1001B00004ED00E0C0000020411D0008AF00002059
:1001C000B0000020C800002072B6704762B67047C9
:1001D000EFF3108072B6704780F310887047B0FA62
:1001E00080F0704790FAA0F0704730BF704720BF92
:1001F00070470000004870472854000810B50446B6
:10020000FFF7F8FF0068005D00F0010010BD40EA54
:1002100001039B0703D009E008C9121F08C0042A84
:10022000FAD203E011F8013B00F8013B521EF9D26B
:100230007047D2B201E000F8012B491EFBD2704793
:100240000022F6E710B513460A4604461946FFF7A2
:10025000F0FF204610BD421C10F8011B0029FBD105
:10026000801A7047CBB203E00178994203D0401C5A
:10027000521EF9D20020704730B5044600200346D4
:1002800000E05B1C934203D2E05CCD5C401BF8D0E5
:1002900030BD2DE9F04791460F46804604460026C2
:1002A00014F8015B2DB1FFF7A5FF0068405DC007A2
:1002B000F6D12B2D02D02D2D18D0641E4A4639467A
:1002C000204600F067FA27B13968A14201D1C7F88A
:1002D000008071054FF002040BD54042002803DD79
:1002E00003F03CF90460A007BDE8F08746F480669F
:1002F000E4E70028F8DA03F031F904606FF0004019
:10030000F2E72DE9FE4F804681EA0300C00F0C465C
:10031000009021F0004123F00045B8EB0200A94114
:1003200005D24046214690461C460B46024623F025
:100330000040104347D0270DC7F30A00C3F30A510A
:100340000290401A019040286BDAC3F3130040F486
:10035000801B0098924620B10023D2EB030A63EB86
:100360000B0B01985946C0F14002504600F0E1F9EC
:1003700006460D4650465946019A00F0F9F910EB31
:1003800008006141002487EA115284EAE7731A43A6
:1003900040D0009A62B3019A012A4FEA075215DC55
:1003A000001B61EB02014FF0004202EA0752CDE967
:1003B0000042001C41F5801132462B4600F0CEFA77
:1003C00003B0BDE8F08F40462146F9E7001B61EB22
:1003D0000201001C41F5801300185B412018A2F5B2
:1003E000001747EB030140EAD570B6196D4111E0E3
:1003F0006D084FEA360645EAC0754FEA0752001B02
:1004000061EB0201001C41F5801149084FEA300000
:100410000019514132462B4603B0BDE8F04F00F0C1
:100420008EBA0098012240000023D0EB020263EB59
:10043000E073009821464FEAE074B8EB000061EBEE
:100440000401E9E783F000435BE781F0004158E7EE
:100450002DE9FE4F81EA030404F0004421F000413D
:1004600000944FF0000B23F0004350EA01045ED0EB
:1004700052EA03045BD0C3F30A54C1F30A552C4477
:10048000A4F2F3340194A0FB0254C1F3130141F42C
:100490008011C3F3130343F4801301FB024400FBF8
:1004A000034E840A970A44EA815447EA8357A4FB1F
:1004B000076802958D0A05FB07854FEA932C04FB1C
:1004C0000C542705029D4FEA065847EA1637B5EB4C
:1004D00008056EEB070C870E920E47EA811742EA79
:1004E0008312A7FB0201B6EB0B0164EB00042B0D9A
:1004F00043EA0C335E1844EB1C50DA465146E7FBE6
:100500000201C5F313044FEA0B3343EA14534FEAD5
:100510000432019C43EA0603A4F10C040294009CFB
:10052000CDE900B400F01AFA03B0BDE8F08F002066
:100530000146F9E72DE9F04D81EA030404F0004B90
:1005400021F0004514464FF0000A23F0004150EA24
:10055000050220D054EA01021DD0C5F30A57024615
:10056000C5F31303C1F31300C1F30A5640F4801519
:1005700043F48013A7EB0608101BD64608F2FD389B
:1005800073EB050002D308F1010801E092185B410A
:10059000B8F1000F03DA00200146BDE8F08D00201D
:1005A0004FF48011064684460EE0171B73EB0507D7
:1005B00005D3121B63EB050306434CEA010C490803
:1005C0004FEA300092185B4150EA0107EDD152EA40
:1005D000030012D082EA040083EA0501084305D033
:1005E000101BAB4106D20122002306E000224FF08F
:1005F000004302E06FF0010253101AEB06004CEBCF
:10060000085110EB0A0041EB0B01BDE8F04D00F082
:1006100096B90EB5C10F80EAE0700844CA07002100
:1006200040F233438DE80E000A460B4600F096F97F
:1006300003B000BD70B5C1F30A5201F000450024BB
:10064000C1F3130140F2FF3341F480119A4201DA01
:10065000002070BD40F233439A42A2F2334203DCE1
:10066000524200F075F800E090402C43F1D0404237
:1006700070BD000030B5041E71F1000404DB4FF0C2
:100680000044404264EB0101141E73F1000405DBD9
:100690001C464FF00043524263EB0403994208BFEB
:1006A000904230BD30B50B46014600202022012487
:1006B00009E021FA02F59D4205D303FA02F5491B30
:1006C00004FA02F52844151EA2F10102F1DC30BD46
:1006D0002DE9F05F0546002092469B468846064677
:1006E000814640241BE0284641464746224600F00A
:1006F0002FF853465A46C01A914110D31146184656
:10070000224600F016F82D1A67EB01084F462246E4
:100710000120002100F00DF817EB00094E41201ECA
:10072000A4F10104DFDC484631462A464346BDE8D1
:10073000F09F202A04DB203A00FA02F100207047E3
:100740009140C2F1200320FA03F31943904070470F
:10075000202A04DB203A21FA02F00021704721FA16
:1007600002F3D040C2F1200291400843194670477D
:10077000202A06DBCB17203A41FA02F043EAE07365
:1007800006E041FA02F3D040C2F120029140084352
:10079000194670472DE9F05F82460078002715461C
:1007A0008B460AF10104B946302801D09DB113E00F
:1007B00014F8010B0127782803D0582801D045B13F
:1007C0000AE00DB1102D07D10027102514F8010BF8
:1007D00002E0082500E00A250026B0460EE005FBF1
:1007E000080005FB06F1012701EB10461FFA80F80F
:1007F000B6F5803F00D3B94614F8010B294600F046
:1008000025F90028EBDABBF1000F05D00FB1641E0B
:1008100000E05446CBF80040B9F1000F06D002F0DA
:100820009DFE02210160C81EBDE8F09F48EA064017
:10083000FAE700000FB4002300B589B00CA90091BD
:100840000B996FF00042CB601E4B06931E4B079333
:100850000423CDE901321D4A089202466B4600206E
:1008600000F082F909B05DF814FB70B586B0064659
:100870004FF0FF300091CDE90101002015460C46F4
:1008800004903246694604A8FFF7D4FF0346049853
:10089000211825B108B10A4600E022462A60002846
:1008A0000DD0002B02DD0098884208D0081B009470
:1008B000CDE901043246694604A8FFF7BBFF06B044
:1008C00070BD0000A10D0008BF0D0008FD0100086B
:1008D0000029A8BF7047401C490008BF20F0010054
:1008E000704710B4B0FA80FC00FA0CF050EA010432
:1008F00004BF10BC704749B1CCF1200421FA04F4C4
:1009000011FA0CF118BF012121430843A3EB0C019C
:10091000CB1D4FEA00614FEA102042BF002010BCFF
:10092000704700EBC35010440029A4BF10BC7047AF
:10093000401C490008BF20F0010010BC704710B5F2
:10094000141E73F1000408DA401C41F100019218F2
:100950005B411A4301D120F0010010BD2DE9F04D9B
:1009600092469B4611B1B1FA81F202E0B0FA80F2F0
:1009700020329046FFF7DDFE04460F4640EA0A00AB
:1009800041EA0B0153465A46084313D0114653EA35
:10099000010019D0C8F140025046FFF7D9FE0546C4
:1009A0000E46504659464246FFF7C3FE084305D05F
:1009B000012004E020463946BDE8F08D00200543C3
:1009C00046EAE0762C4337430A986305E40AA0EB35
:1009D00008000022FD0A44EA47540A3002D50020EC
:1009E0000146E9E7010510196941DDE908450019EB
:1009F0006941BDE8F04DA2E7C1F30A52C1F313010A
:100A000040F2FF3341F480119A4202DA002001469D
:100A1000704740F233439A42A2F2334202DC524220
:100A2000FFF796BEFFF785BE064C074D06E0E0686F
:100A300040F0010394E8070098471034AC42F6D325
:100A4000FFF758FB98560008B85600083A2800D21D
:100A5000303820F02002412A01D3A2F13700884229
:100A600001D34FF0FF3070472DE9FF4F087881B078
:100A70009946FF2805D0491C2D2804D000240023C6
:100A800008E000230BE00124F9E703EB830300EB0C
:100A90004303491C0878FF28F7D104B15B420020CA
:100AA0000090147801462D2C01D02B2C04D1521C1F
:100AB0002D2C12D00024009400251678FF2E0ED085
:100AC0000A24A0FB04C801FB0481002700FB0711D6
:100AD000521C16EB0C006941EFE70124EBE7994447
:100AE00050EA01020ED00024AA4D2646DFF8A88263
:100AF00000F076F982468B46B9F1000009DAC9F1B7
:100B000000071BE001980021C0E9001105B0BDE815
:100B1000F08F074612E0F80707D022462B463046F2
:100B20004146FFF795FC0646884622462B4610466E
:100B30001946FFF78DFC04460D467F10002FEAD1C1
:100B4000B9F1000F324643465046594602DAFFF7E4
:100B5000F1FC01E0FFF77CFC009A0AB181F0004152
:100B6000019AC2E90001D1E72DE9FF4F1F468DB080
:100B7000D7E901464FF0FF382E2045464FF00009D7
:100B80000B90B9696D1C0E988847396A8246884770
:100B90000028F6D1BAF1FF3F0AD024F4D064002E29
:100BA00011DDBAF12B0F08D0BAF12D0F0BD102E0F5
:100BB000404611B0ABE744F48064B9696D1C0E98EF
:100BC00088478246761E6946600501D52D2000E0E3
:100BD0002B208DF8000001F1010B0DF1200809E038
:100BE000B9696D1C0E98884782460F9844F40074CA
:100BF000761E0560002E02DDBAF1300FF0D00B99A1
:100C00008A453ED144F0800406E00F99681CA9F1A2
:100C1000010944F400740860B9696D1C761E0E98D1
:100C2000884782463028F0D02BE00B998A4505D1C1
:100C3000200603D444F08004761E18E0504602F0EB
:100C400053FD08B30DF11301761E44F400748B4577
:100C500008D2AAF130000BF8010B200607D5A9F144
:100C6000010003E0200602D409F101008146A0053D
:100C700002D50F99681C0860B9696D1C0E988847E9
:100C80008246002ED1DC53E0002E51DDBAF1650F13
:100C900002D0BAF1450F4BD1A00549D5B9696D1CF9
:100CA00024F44074761E0E9888478246002E0CDD90
:100CB0002B2804D0BAF12D0F07D144F48074B96900
:100CC0006D1C0E9888478246761EE00501D52D21C1
:100CD00000E02B2108F8011BCDF82C8021E00DF15C
:100CE0002901761E44F4007488450CD2AAF1300024
:100CF00010F0FF0088F8000002D10B99884509D94F
:100D000008F1010806E0E00501D5244801E042F2BF
:100D10000F708146B9696D1C0E98884782460F98FE
:100D20000560002E04DD504602F0DEFC0028D6D11E
:100D3000F9690E988847FF208BF8000088F80000BA
:100D40000020069007904B466A4608A906A8FFF7C0
:100D50008BFEA00502D46FF001002AE714F0240FE7
:100D60000AD0E00714D1DDE906123868031D3B60A4
:100D70000068C0E900120BE0DDE9060100F03CF874
:100D80000146E00704D13868021D3A60006801603E
:100D900028460EE7000024400000F03FF1D8FFFF96
:100DA000426842B1016811F8013B23B1521EC0E90B
:100DB0000012184670470121C160881E70474268C2
:100DC0005AB1C368016843B983688B4205D0491E94
:100DD000521CC0E90012002070474FF0FF307047EE
:100DE0000EB540F2334202920022CDE900221346B2
:100DF000FFF7B4FD03B000BD01F0004330B421F0B3
:100E0000004150EA010206D00A0DA2F56072C1F35A
:100E10001301002A02DC30BC00207047440F44EA72
:100E2000C104C100E01830BC00EBC250FFF750BD58
:100E300008B59DF8000000903B23064A00210648B3
:100E400000F07EFD00906A4604A13B2000F036FED3
:100E500008BD0000A8120020F13F00085461736B28
:100E6000204C454420426C696E6B0000704710B501
:100E7000FFF7DEFF10BD70477047000000F044F838
:100E800001F0ACF901F0CAFD00F005F902F062F9D9
:100E900002F0CAF900F028FDFFF7E9FF05A002F013
:100EA00027FB00BF00231A460121184600F088FFE7
:100EB000F8E700003D3D3D3D3D3D3D3D3D4D616917
:100EC0006E205461736B2053746172743D3D3D3DDF
:100ED0003D0A0000704770477047000010B51421AC
:100EE000024800F095FA0249086010BDF8010020A0
:100EF0000000002000BFFEE77047000001490860C5
:100F0000704700001404014008B50121082001F0D9
:100F100075FD4FF4C050ADF8000003208DF80200BD
:100F200010208DF803006946014800F003F808BD61
:100F3000000C01402DE9F04102460025002600206A
:100F400000230024002791F803C00CF00F0591F84E
:100F500003C00CF0100CBCF1000F03D091F802C0DC
:100F60004CEA050591F800C0BCF1000F31D01468BF
:100F700000202BE04FF0010C0CFA00F3B1F800C098
:100F80000CEA03069E4220D183004FF00F0C0CFAAE
:100F900003F7BC4305FA03FC4CEA040491F803C0D0
:100FA000BCF1280F06D14FF0010C0CFA00FCC2F87E
:100FB00014C00AE091F803C0BCF1480F05D14FF00E
:100FC000010C0CFA00FCC2F810C0401C0828D1D358
:100FD0001460B1F800C0BCF1FF0F34DD546800208C
:100FE0002EE000F1080C4FF0010808FA0CF3B1F8FC
:100FF00000C00CEA03069E4221D183004FF00F0C83
:101000000CFA03F7BC4305FA03FC4CEA040491F81C
:1010100003C0BCF1280F05D100F1080C08FA0CF848
:10102000C2F8148091F803C0BCF1480F07D100F159
:10103000080C4FF0010808FA0CF8C2F81080401CA8
:101040000828CED35460BDE8F0814161704701614A
:10105000704700BFFEE70146CA1701EB927292107B
:10106000A1EB820292B9642091FBF0F200FB121016
:1010700050B94FF4C87091FBF0F200FB121008B9A0
:10108000012070470020FCE70120FAE70020F8E784
:1010900000BFFEE7704708B500214FF0006000F088
:1010A0005FF84FF4E06000F051F825208DF8000063
:1010B00000208DF8020001208DF80300684600F042
:1010C0000DF826208DF8000000208DF80200012088
:1010D0008DF80300684600F001F808BD70B50021E6
:1010E00000230F22C47804B3154C246804F4E06490
:1010F000C4F5E064210AC1F10403CA40447804FA4B
:1011000003F184781440214309010E4C0678A1555F
:10111000047804F01F050124AC4005786D11AD0082
:1011200005F1E025C5F8004109E0047804F01F0549
:101130000124AC40044D0678761145F8264070BD78
:101140000CED00E000E400E080E100E00249014332
:10115000024A1160704700000000FA050CED00E043
:10116000024A0A400243024B1A60704780FFFF1F89
:1011700008ED00E01D481E481E481F481F48204833
:10118000204821482148224822482348234824480F
:1011900024482548254826482648274827482848DF
:1011A0002848294829482A482A482B482B482C48AF
:1011B0002C482D482D482E482E482F482F4830487F
:1011C000304831483148324832483348334834484F
:1011D000344835483548364836483748374838481F
:1011E00038483948394800BF70470000305200087D
:1011F000345200083A5200083C52000838520008A5
:101200003E52000840520008425200084452000872
:1012100046520008485200084A5200084C52000842
:101220004E52000850520008525200085452000812
:1012300056520008585200085A5200085C520008E2
:101240005E520008605200086252000864520008B2
:1012500066520008685200086A5200086C52000882
:101260006E52000870520008725200087452000852
:1012700076520008785200087A5200087C52000822
:101280007E520008805200088252000886520008F0
:10129000885200088A5200088C520008D01F002093
:1012A00050230020905200089252000894520008E7
:1012B00096520008985200089A5200089C52000862
:1012C0009E520008A05200088E520008A252000848
:1012D0002DE9F04105460E46144600271DB90420AD
:1012E0002070BDE8F08116B90C202070F9E7114894
:1012F000007810B112202070F3E72878012808D078
:10130000022807D0032802D0042804D100E000BF3F
:1013100000BF00BF02E001202070E2E700BFFEF73F
:1013200001FF07466E613846FEF700FF002020707F
:1013300000BFD6E7AD00002010B500F019F801F0AD
:10134000A3F801F0CBF801F0EBF801F06DF801F033
:101350003FF801F07BF901F0A5F901F021F901F066
:1013600045F900F003FE00F009F8FFF703FF10BD98
:10137000002001490880704790000020704700005D
:1013800010B500241A480078012830D1FEF7CAFEB3
:1013900004461848007820B116480078401E1549C8
:1013A000087014480078F8B913480078E0B901F0E3
:1013B000DBF912481249097850F8210011490860F8
:1013C0000F4800781049097888420DD00D48006810
:1013D000C06B401C0B490968C8630C480068401C7E
:1013E0000A490860FEF7BAFE2046FEF79FFE10BDD0
:1013F000BA000020AD000020AE00002068160020DA
:10140000B0000020C8000020AF00002094000020A1
:101410002DE9F04106460F464FF0000820480078BD
:1014200010B10020BDE8F081FEF77CFE80461D482B
:101430000468006820B11B480068406819490860CA
:101440004046FEF773FEFCB1FEF76CFE8046164880
:101450000568D5B100680068134908604046FEF78A
:1014600065FE6E6006EB8700A860EE602E61AF82BD
:101470000020E882022020700020208165600BA0FF
:101480006061204600F096FF08E006480068606052
:10149000044804604046FEF749FE00242046C1E7A8
:1014A000AD00002098000020D80000203F00000080
:1014B0002DE9F0470646884615464FF0000926B943
:1014C000042028700020BDE8F0873078022803D07F
:1014D000012028700020F6E73D48007818B102206E
:1014E00028700020EFE73B48007818B10D202870E5
:1014F0000020E8E7FEF716FE81467468E08A98B19E
:101500002169081D20610F68E08A401EE082A16801
:101510002069884201D1606820614846FEF706FED6
:10152000002028703846CEE72B48006890F8340039
:1015300040F004002849096881F834000020264959
:10154000096881F8350024480068C0F830803046CA
:1015500000F0F2FE4846FEF7E9FD01F0CBF8FEF799
:10156000E1FD81461C48006890F8350020B1012853
:101570000DD002280AD105E017480068476A00200C
:1015800028700DE000270E20287009E000BF3146CA
:101590001148006800F09EFE00270A20287000BF56
:1015A00000BF00200C49096881F834000A49096825
:1015B00081F8350008490968C86107490968086267
:1015C0000549096848624846FEF7B0FD38467AE7A3
:1015D000AD000020AE000020C00000202DE9F04149
:1015E00005460E46002715B90420BDE8F08128788D
:1015F000022801D00120F8E7FEF794FD0746A87AFB
:1016000060B1002304223146284600F01BFE384614
:10161000FEF78CFD01F06EF80020E6E76C68E08ACA
:10162000A18A884204DB3846FEF780FD1E20DCE7F5
:10163000E168081DE0600E60E08A401CE082D4E9A9
:101640000210884201D16068E0603846FEF76EFD06
:101650000020CAE710B500240B480078012811D1FA
:10166000FEF760FD04460948007840B90848007854
:10167000FF2804D206480078401C0549087020461F
:10168000FEF754FD10BD0000BA000020AD000020A0
:10169000AE00002010B5002413480078012821D1A5
:1016A000FEF740FD044611480078C0B10F480078AD
:1016B000401E0E4908700846007860B90C48007852
:1016C00028B92046FEF732FD01F014F80AE0204662
:1016D000FEF72CFD06E02046FEF728FD02E020463E
:1016E000FEF724FD10BD0000BA000020AE0000206F
:1016F000AD00002070B5054600261048007808B1FE
:10170000002070BDFEF70EFD06460D480468006817
:1017100020B10B4800684068094908603046FEF770
:1017200005FD4CB10320207025810020606005A0DC
:101730006061204600F03EFE2046E2E7AD0000205A
:10174000980000203F0000002DE9F04105460E46BC
:10175000144600271DB904202070BDE8F0812878C8
:10176000032802D001202070F7E73248007810B13A
:1017700002202070F1E73048007810B10D20207071
:10178000EBE7FEF7CFFC0746288940B12889401EC9
:1017900028813846FEF7CAFC00202070DDE7274884
:1017A000006890F8340040F001002449096881F88D
:1017B000340000202149096881F835001F4800687D
:1017C0000663284600F0B8FD3846FEF7AFFC00F08F
:1017D00091FFFEF7A7FC07461848006890F835000F
:1017E00020B1012809D0022806D102E00020207093
:1017F0000BE00E20207008E000BF29460F4800686B
:1018000000F068FD0A20207000BF00BF00200B49D7
:10181000096881F834000949096881F835000749E9
:101820000968C8610549096808623846FEF77EFC08
:1018300000BF92E7AD000020AE000020C0000020F5
:1018400070B5044600250CB9042070BD207803282B
:1018500001D00120F9E7FEF765FC0546A07A60B1EA
:10186000002301221946204600F0ECFC2846FEF732
:101870005DFC00F03FFF0020E7E720894FF6FF7195
:10188000884207D22089401C20812846FEF74EFC62
:101890000020DAE72846FEF749FC3320D5E70000B0
:1018A00010B50B48007890B900F05EFF0948007849
:1018B0000949087009480749097850F82100084982
:1018C00008600846006807490860FEF732FC10BD52
:1018D000BA000020B0000020AF00002068160020F1
:1018E000C8000020C000002010B50024022000F035
:1018F0002BFAFEF717FC044600200B49086020462F
:10190000FEF714FC0A2000F01FFAFEF70BFC044659
:10191000054800680549086001200549087020460F
:10192000FEF704FC10BD0000BC000020A400002055
:10193000AC00002010B504462046FFF797FA10BD12
:101940002DE9FE4F06460F4690461C464FF0000913
:101950003F2C02D92A20BDE8FE8FFEF7E3FB81462B
:101960001E48007820B14846FEF7E0FB3C20F2E735
:101970001B4850F8240060BB0120194941F824009D
:101980004846FEF7D3FB002342463946304600F076
:101990002BF98246002000900190034602465146F2
:1019A0000290204600F0F6FE054635B90D48007855
:1019B00001280CD100F09EFE09E0FEF7B3FB814642
:1019C0000020074941F824004846FEF7AFFB2846AF
:1019D000C1E74846FEF7AAFB2820BCE7AD0000207F
:1019E00068160020BA0000202DE9F04F85B081462E
:1019F0008A4693461C46DDE90F78129D002003902D
:101A00003F2C03D92A2005B0BDE8F08FFEF78AFBF2
:101A100003902248007820B10398FEF787FB3C2012
:101A2000F1E71F4850F8240088BB01201C4941F809
:101A300024000398FEF77AFB2A464146384600F018
:101A4000B9FF2B465A465146484600F0CDF804905F
:101A50001198CDE9008002953A4620460E9B0499E4
:101A600000F098FE064636B90E48007801280CD1E1
:101A700000F040FE09E0FEF755FB03900020084906
:101A800041F824000398FEF751FB3046BBE7FFE71F
:101A90000398FEF74BFB2820B5E70000AD000020BF
:101AA00068160020BA00002010B504462046FFF753
:101AB000E2F910BD10B5FFF7DFF910BD2DE9F041D7
:101AC00005460F4614464FF000083F2D05D9FF2D5F
:101AD00003D02A202070BDE8F08117B90C202070B7
:101AE000F9E71448007810B112202070F3E7FEF7F0
:101AF00019FB8046FF2D03D10F48006890F836503F
:101B00000E4850F825602EB94046FEF70FFB4320E3
:101B10002070E0E7012E05D14046FEF707FB432089
:101B20002070D8E737654046FEF700FB00202070A4
:101B300000BFD0E7AD000020C000002068160020E4
:101B400010B5FFF7C7F910BD2DE9F04706460C4662
:101B50004FF0000A3F2E04D9FF2E02D02A20BDE804
:101B6000F0870CB90920FAE7002020606060FEF7DA
:101B7000D9FA8246FF2E03D11948006890F83660E2
:101B8000184850F8265025B95046FEF7CFFA4320A2
:101B9000E5E7012D04D15046FEF7C8FA4320DEE701
:101BA000287C00F0010020B95046FEF7BFFA45201E
:101BB000D5E70027D5F80C90D5F808805046FEF7F9
:101BC000B5FA00E07F1C58F8041B0029FAD0B800D1
:101BD0002060A9EB0700800060600020BFE70000E4
:101BE000C00000206816002070B5044610464FF073
:101BF00080750560051F28462C606FF00106051FE3
:101C000028462E604FF01236051F28462E604FF0F2
:101C10000336051F28462E604FF00236051F284662
:101C20002E607610051F28462E60051F2846296065
:101C30004FF01136051F28462E604FF01036051F55
:101C400028462E604FF00936051F28462E604FF0BB
:101C50000836051F28462E604FF00736051F284618
:101C60002E604FF00636051F28462E604FF00536D1
:101C7000051F28462E604FF00436051F28462E60AB
:101C800070BD00002DE9F04105464FF000083F2DE2
:101C900002D14720BDE8F0813F2D03D3FF2D01D0B5
:101CA0002A20F7E7FEF73EFA8046FF2D05D12048AF
:101CB000006890F83650012608E01D48006890F84A
:101CC0003600A84201D1012600E00026194850F84C
:101CD000254024B94046FEF729FA4820DAE7012CCE
:101CE00004D14046FEF722FA4320D3E794F8387037
:101CF0001148C05D94F8391088430F49C85508460B
:101D0000C05D30B994F83A100C48007888430B490C
:101D1000087094F8340040F0080084F8340040461D
:101D2000FEF704FA012E01D100F0E4FC0020B1E737
:101D3000C000002068160020B2000020B100002082
:101D400010B5FFF7C8F810BD70B505460026174856
:101D5000007800B170BD1648007800B1FAE71DB3F5
:101D6000FEF7E0F906461348006890F8384012483C
:101D7000005D1049096891F8391088430E490855EB
:101D80000846005D40B90B48006890F83A100B48CF
:101D900000788843094908700648006805633046A2
:101DA000FEF7C4F900F0A6FC00BFD3E7AD000020A9
:101DB000AE000020C0000020B2000020B1000020D2
:101DC0002DE9F04107460C4615461E461B48007893
:101DD00010B15520BDE8F0811948007808B13220D3
:101DE000F8E727B91CB915B90EB95420F2E73B2C16
:101DF00001D95120EEE73B2D01D95220EAE7B6F593
:101E00007A7F01D35320E5E7701D642148434FF4E6
:101E10007A71B0FBF1F14FF461607843C4EB0412C6
:101E200000EB8200284400EBC00202EB001001EB43
:101E300080084046FFF788FF0020CBE7AD00002078
:101E4000AE00002070B5002600F072F8FEF76AF9C7
:101E5000064631480068401C2F4908603046FEF7AE
:101E600065F92E480078012853D12D48007820B11B
:101E7000012804D0022809D103E001250BE0002548
:101E800009E0012501202649087004E00125002011
:101E90002349087000BF00BF05B970BD2148046820
:101EA00033E0FEF73FF90646206B50B3206B401E2F
:101EB0002063206B28BB94F8340000F0370040B159
:101EC00014F8340F00F0C800207001206070343C1A
:101ED00002E0002084F8350094F8340000F0080097
:101EE00078B93834A0781049097808430E49087049
:101EF00020780E49085C6178084314F838190B4AB9
:101F0000505464693046FEF711F994F836003F28C2
:101F1000C7D100BFC1E70000DC000020BA000020EC
:101F2000D0000020CC000020B1000020B200002032
:101F300010B5FEF7D1FF07480088401C054908800E
:101F4000084600880A2803D30020088000F004F81F
:101F500010BD00009000002010B503480068FFF796
:101F60006FFC0446204610BDEC000020F8B54FF48D
:101F70002071284800F060FB4021274800F05CFBFE
:101F8000002514E0681C86B205EB8500214901EBB1
:101F9000C00406EB860001EBC0076420207000201F
:101FA00084F82500E7601DA02062681C85B20F2D13
:101FB000E8D305EB8500174901EBC00464202070CD
:101FC000002084F82500E06014A02062002014495D
:101FD0000860144908801020134908800D481349EF
:101FE00008600120FFF786FB114908600020FFF719
:101FF00081FB104908606A460FA10D480068FFF791
:1020000067F96A4611A10B480068FFF761F900F013
:1020100027F8F8BDD01F0020502300203F0000000B
:10202000E4000020E2000020E0000020F00000209A
:10203000E8000020EC00002075432F4F532D494944
:1020400020546D724C6F636B0000000075432F4F7E
:10205000532D494920546D725369676E616C0000BD
:1020600000B587B00320002140220A4BCDE90132A0
:10207000CDE903104FF6FD703D23064AFC32009077
:102080000548FFF7B1FC06AA04A13D20FFF716FDA5
:1020900007B000BD502200201921000875432F4FC2
:1020A000532D494920546D720000000070B50B4655
:1020B000032580F82550012B05D1154EC5693668DA
:1020C000354445610CE085692DB9114EC569366806
:1020D0003544456104E00E4E8569366835444561F6
:1020E000057D05F007040B4D05EBC4010D682DB906
:1020F00008600025C56001258D8006E00A6808603B
:10210000C26010618D886D1C8D800025056170BDD9
:10211000E40000205023002008B500BF00BF6A463D
:1021200000211A480068FFF70FFBFFF793FA1848E1
:102130000068401C164908600846007800F007084F
:10214000144800EBC8073C681AE0E668104960696B
:102150000968884213D1204600F01EF894F8240044
:10216000022804D101212046FFF7A0FF02E002204F
:1021700084F82500656815B12046A168A847344653
:10218000002CE2D1FFF786FAC9E70000EC0000203E
:10219000E40000205023002030B5057D05F0070441
:1021A0000D4D05EBC4031D68854205D1C16819605A
:1021B00039B100250D6104E00169C268CA6002B14D
:1021C0001161012580F825500025C56005619D88B5
:1021D0006D1E9D8030BD00005023002030B5164894
:1021E00000686422B0FBF2F1B1F1807F01D30120DD
:1021F0001DE021F07F40401E4FF0E022506150175B
:102200000F22002807DA13071D0E0C4B00F00F04F5
:10221000241F1D5503E013071C0E094B1C5400BF5F
:1022200000204FF0E022906107201061002008B1EB
:1022300000BFFEE730BD00007C00002018ED00E08C
:1022400000E400E02DE9F04F05460F469046994620
:10225000A87A1C490E5C05F10B00805D11F800B0F6
:102260000BEBC60000F0FF0A174850F82A40002088
:102270002434E0602760207C20EA0800207484F881
:102280001190207C243C00F0080068B994F83A00D2
:102290000E49097808430D4908700D48805D94F88F
:1022A000391008430A4988552946204600F012F89B
:1022B000206A20B12046216A00F021F8E5615046ED
:1022C000BDE8F08FA452000868160020B10000207D
:1022D000B200002010B590F8382001F10B039B5C90
:1022E00090F83940A34301F10B04A35423469B5CAF
:1022F00023B98B7A90F83A40A3438B7210BDF0B5A6
:10230000024612F8384F95785678383A0B461868D6
:102310000FE000F10B073F5DB74300F10B0C0CF829
:10232000047067463F5D17B9877AAF4387721B1DFC
:1023300018680028EDD1F0BD10B51B4A1268D061B5
:10234000194A126892F8383000F10B02D25C164B31
:102350001B6893F839301A43134B1B6893F83840C5
:1023600000F10B031A55827A0F4B1B6893F83A3031
:102370001A4382720C4A126892F838100B4A525C67
:10238000094B1B6893F839309A43084B5A541A4644
:10239000525C42B9044A126892F83A30044A127800
:1023A0009A43034B1A7010BDC0000020B2000020F9
:1023B000B1000020014600228A72002005E00023BF
:1023C00001F10B021354421CD0B20828F7D3704716
:1023D0002DE9F0415021114800F02EF900250DE0C3
:1023E000681C86B20D4800EB051400EB06170020B0
:1023F000207067600AA0E060681C85B2042DEFD3EE
:10240000064800EB051400202070606004A0E06026
:10241000024804490860BDE8F081000098140020DB
:102420003F0000009C00002070B54FF4F07113488D
:1024300000F002F9002411E0601C85B204EB4400B6
:102440000E4901EBC00305EB450001EBC00600207F
:1024500018705E600AA05861601C84B2132CEBD324
:1024600004EB4400054901EBC003002018705860DC
:1024700003A0586108460349086070BDB8120020E7
:102480003F0000009800002000200A4908600A4927
:1024900008700A4908700A4908700A4908700A4910
:1024A00008600A4908600A4908600A4908600A4940
:1024B00008707047DC000020AD000020AE00002056
:1024C000BB000020BA00002094000020BC000020C7
:1024D000A8000020A4000020AC00002000210A4A2F
:1024E0001170002004E00021084A1154411CC8B2B8
:1024F0000828F8D30021064A1170064A1170064ACE
:102500001160064A11607047B1000020B20000203F
:10251000AF000020B0000020C8000020C000002054
:1025200070B54FF4F261194800F086F84FF48071ED
:10253000174800F081F8002413E0601CC5B204EBDA
:10254000440000EBC400114901EBC00305EB45005A
:1025500000EBC50001EBC0065E610EA01865601CB3
:10256000C4B2152CE9D304EB440000EBC4000749C6
:1025700001EBC0030020586106A018650020064941
:10258000086002480549086070BD00006817002017
:10259000681600203F000000CC000020C40000208E
:1025A00000B587B00320002120220A4BCDE901327B
:1025B000CDE903104FF6FF703F23064A7C320090AE
:1025C0000548FFF711FA06AA04A13F20FFF776FAA3
:1025D00007B000BDE8150020C928000875432F4F3B
:1025E000532D49492049646C6500000000B587B04F
:1025F0000320002140220A4BCDE90132CDE903102E
:102600004FF6FE703E23064AFC3200900548FFF765
:10261000EBF906AA04A13E20FFF750FA07B000BD6F
:10262000E8140020F128000875432F4F532D494925
:10263000205374617400000004E0002200F8012BB4
:102640004A1E91B20029F8D17047000070B5782178
:102650001148FFF7F1FF00240EE004EB44000E499F
:1026600001EBC005601C00EB400001EBC00068609E
:102670000AA06861601C84B2042CEED304EB440011
:10268000054901EBC0050020686004A068610846A8
:102690000349086070BD0000F81E00203F000000E4
:1026A000D40000202DE9F04160211048FFF7C4FF5D
:1026B00000240DE0601C86B204EB44000B4901EBE2
:1026C000C00506EB460001EBC0072F60601C84B21A
:1026D000032CEFD304EB4400044901EBC0050020B8
:1026E0002860084602490860BDE8F081701F00209C
:1026F000D800002010B50024FDF714FD044613484F
:102700000078F8B912480078E0B900F02DF81148C7
:102710001149097850F82100104908600E480078E6
:102720000F49097888420DD00C480068C06B401CE6
:102730000A490968C8630B480068401C09490860D9
:10274000FDF707FD2046FDF7F1FC10BDAD000020B0
:10275000AE00002068160020B0000020C800002055
:10276000AF000020940000200649074A1278885CD8
:102770000649095C034A515C01EBC001044A11702F
:1027800070470000A4520008B1000020B2000020F1
:10279000B00000202DE9F84F05460F4690469946B7
:1027A000DDE90AAB00200090FDF7BCFC00903F483B
:1027B0000468002C75D01C3454F8080C3B490860A0
:1027C0000098FDF7B3FC44F81C7CA5760020207629
:1027D0006076606144F818BC44F810AC44F8148C7E
:1027E0000C9824F80C0C24F80A9C0020E077E810E0
:1027F000207705F00700E076217F01208840A07750
:10280000E17E012088406077002020606060E06009
:10281000A0602062A0626062E062206324A0606326
:102820001C3C002606E0002104F1540040F826106C
:10283000701CC6B2002EF6D02046FFF77BF820466B
:10284000FFF732F9FDF76EFC00901A4840F825407A
:102850001948006860610020A0611748006810B145
:10286000154800688461144804603834A07813491E
:10287000097808431149087020781149085C61788B
:10288000084314F838190E4A50540E480078401C7A
:102890000C4908700098FDF749FC0020BDE8F88F4E
:1028A000FFE70098FDF742FC4220F7E7C400002054
:1028B0003F00000068160020CC000020B10000207E
:1028C000B2000020BB000020002400BF00BFFDF7C5
:1028D00029FC044605480068401C0449086020465D
:1028E000FDF724FCFFF7E6F8F1E70000BC0000204C
:1028F000002400BF02E01420FFF726FA19480078F0
:102900000028F8D0184800686421B0FBF1F016499F
:1029100008600846006828B9002014490870FF20A4
:10292000FFF7B0F900BFFDF7FDFB04461048006853
:102930001049086000200E4908602046FDF7F6FBAC
:102940000C48006808490968B0FBF1F0C0F1640068
:1029500006490870FFF7F4F800F00EF80A20FFF7B8
:10296000F3F9E0E7AC000020A4000020A000002064
:10297000BC000020A80000207CB5002514E06946BA
:102980002846FFF7E1F8064666B9094850F82540A1
:1029900044B1012C06D0D4E9020100EB8100A0640F
:1029A0000198E064681CC5B23F2DE8D97CBD0000E9
:1029B0006816002002F0010343B102F002032BB1BC
:1029C00002E0491E002308C00029FAD17047000028
:1029D000014908627047000000000E4229B1064A12
:1029E000D2690243044BDA6104E0034AD2698243AC
:1029F000014BDA61704700000010024029B1064A1D
:102A000092690243044B9A6104E0034A926982434B
:102A1000014B9A61704700000010024010B500F0B1
:102A200029F84FF4803000F0E7F800F043F904464D
:102A3000012C1ED1002000F0D3F8002000F00EF988
:102A4000A00200F0FFF84FF4E011200400F018F9A4
:102A5000012000F00FF900BF392000F09BF800289A
:102A6000FAD0022000F01AF900BF00F0B1F80828EF
:102A7000FBD110BD0F48006840F001000D4908600F
:102A8000084640680C4908400A4948600846006802
:102A90000A490840074908600846006820F4802079
:102AA00008600846406820F4FE0048604FF41F00AC
:102AB00088607047001002400000FFF8FFFFF6FE3C
:102AC00030B500210022002400232D4D6D6805F053
:102AD0000C0121B1042905D0082923D105E0294D95
:102AE000056022E0274D05601FE0254D6D6805F467
:102AF0007012234D6D6805F48034022505EB924277
:102B00001CB9214D554305600BE01D4D6D6805F462
:102B100000351DB11C4D5543056002E0194D55436C
:102B2000056002E0174D056000BF00BF144D6D68E1
:102B300005F0F0010909154D6B5C0568DD40456045
:102B40000F4D6D6805F4E061090A104D6B5C456836
:102B5000DD4085600A4D6D6805F46051C90A0B4D72
:102B60006B5C4568DD40C560054D6D6805F440410E
:102B7000890B074D6B5CC568B5FBF3F5056130BD8E
:102B80000010024000127A0000093D00660000209B
:102B90007600002010B501460022002300204A11D3
:102BA000012A02D1094C236806E0022A02D1074C0F
:102BB000236A01E0054C636A01F01F02012494407E
:102BC0001C400CB1012000E0002010BD00100240AC
:102BD0000248406800F00C007047000000100240FE
:102BE00001460020034A506820F0F000084350607E
:102BF00070470000001002401149096821F480313B
:102C00000F4A11601146096821F480211160B0F566
:102C1000803F03D0B0F5802F0ED106E00849096847
:102C200041F48031064A116007E00549096841F422
:102C3000A021034A116000E000BF00BF7047000000
:102C40000010024001460020034A506820F4E06072
:102C50000843506070470000001002400146002009
:102C6000034A506820F4605040EAC1005060704749
:102C7000001002400149086670470000000042420F
:102C800002460020044B586820F47C1042EA0103FD
:102C90001843014B58607047001002400146002065
:102CA000034A506820F0030008435060704700005A
:102CB0000010024038B5002000900024002500BF1D
:102CC0003120FFF767FF05460098401C00900098F0
:102CD000B0F5A06F01D0002DF2D03120FFF75AFFE0
:102CE00008B1012400E00024204638BD10B54FF49F
:102CF0000030FEF703F910BD024909888143014AFB
:102D000011807047042800400348008840F01000FC
:102D100001490880704700000428004003480088EB
:102D20004FF6EF71084001490880704704280040C1
:102D300030B5002500230024374805882D04001DE8
:102D4000008805443548B5FBF0F3354800889842C3
:102D50003CD033490B8040F2B27410E02046FEF7BD
:102D60007AF940B1B3F5B77F02D3A3F5B77304E0A6
:102D7000601C84B206E0A3F26D13601C84B2B3F54C
:102D8000B67FEBD800BF27488480002416E0254991
:102D90008888FEF760F930B1012C04D11D2B01D3D6
:102DA0001D3B09E00CE02048005D984203D81E4816
:102DB000005D1B1A00E003E0601C84B21C2BE6D20D
:102DC00000BF601C17498871581CC8711348B5FBB7
:102DD000F0F100FB11534FF46160B3FBF0F01149C7
:102DE00008704FF46160B3FBF0F100FB11303C213F
:102DF000B0FBF1F00B4948704FF46160B3FBF0F1A8
:102E000000FB11303C21B0FBF1F201FB120005493F
:102E10008870002030BD000018280040805101005B
:102E200064000020AC12002024520008014600205B
:102E3000064A12880A40D0B2044A121F12880A4079
:102E400012B108B1012000E00020704704280040C2
:102E50000EB50120FFF7EAFFB0B10120FFF74CFFEC
:102E600000F0B4F8FFF764FF0C4880780B4949780C
:102E70000A4A1278CDE9002102900848C379827984
:102E8000818807A000F034FB0220FFF7CFFF20B1BC
:102E90000220FFF731FF00F099F80EBDAC120020C0
:102EA0002534642F253032642F25303264202530BC
:102EB00032643A253032643A253032640A00000028
:102EC0002DE9F05F06460F4691469846DDE90AABCC
:102ED00000245B46524641462BA000F009FB40F21D
:102EE000B270864203DB40F63300864202DD0120E9
:102EF000BDE8F09F40F2B2750AE02846FEF7ABF855
:102F000010B12748044401E026480444681C85B2F7
:102F1000B542F2DB781EC7B2002510E02248405DC2
:102F200040F2A321484304EBC0143046FEF793F867
:102F300018B1012D01D11D480444681C85B2BD4261
:102F4000ECDBA9F1010040F2A321484304EBC014DB
:102F5000C8EB4810C0EB082004EB0014CAEB0A10C1
:102F600004EB80045C4400F031F801214FF0C050C4
:102F7000FFF734FD0120FFF72BFD204600F018F885
:102F800000F024F80020B3E75254435F53657420E7
:102F9000253032643A253032643A253032640000FC
:102FA0000085E2018033E1012452000880510100D4
:102FB00000B50246FFF7A8FE100C03490880091D62
:102FC0000A80FFF7ABFE00BD1828004000BF034891
:102FD000008800F020000028F9D070470428004045
:102FE000704710B500F002F810BD00000CB50020CD
:102FF000019000903348006840F480303149086007
:1030000000BF3048006800F4003000900198401C78
:103010000190009818B90198B0F5A06FF1D1294836
:10302000006800F4003010B10120009001E00020A1
:1030300000900098012843D12348006840F0100018
:10304000214908600846006820F00300086008462F
:10305000006840F0020008601A484068194948605A
:103060000846406848600846406840F48060486010
:103070000846406820F47C1048600846406840F4E8
:10308000E81048600846006840F08070086000BFA3
:103090000C48006800F000700028F9D0094840682A
:1030A00020F00300074948600846406840F00200ED
:1030B000486000BF0348406800F00C000828F9D1C0
:1030C0000CBD0000001002400020024010B5FDF7CA
:1030D00029F8044606480078401C05490870204637
:1030E000FDF724F8FEF7AEFEFEF74AF910BD00002A
:1030F000AD00002010B51348006840F001001149F0
:10310000086008464068104908400E494860084673
:1031100000680E4908400B4908600846006820F422
:10312000802008600846406820F4FE0048604FF4A4
:103130001F008860FFF755FF4FF0006004490860EA
:1031400010BD0000001002400000FFF8FFFFF6FE77
:1031500008ED00E000B585B001210520FFF74EFC29
:1031600001218803FFF74AFC4FF40070ADF810000E
:1031700018208DF8130003208DF8120004A91A48B6
:10318000FDF7D8FE4FF48060ADF8100004208DF8F4
:10319000130004A91448FDF7CDFE04A91248FDF759
:1031A000C9FE4FF4E13000900020ADF80400ADF806
:1031B0000600ADF80800ADF80C000C20ADF80A00D0
:1031C00069460A4800F00CF9012240F225510748EF
:1031D00000F0E0F80121054800F099F8402103488B
:1031E00000F08CF805B000BD000801400038014037
:1031F00010B540F22551074800F0A2F848B1054843
:1032000000F05AF9C4B2204600F060F902A000F0C4
:103210006FF910BD0038014068656C6C6F20776FE6
:10322000726C640A0000000000B585B00121052021
:10323000FFF7E4FB01214804FFF7D0FB0420ADF8C1
:10324000100018208DF8130003208DF8120004A937
:103250001948FDF76FFE0820ADF8100004208DF826
:10326000130004A91448FDF765FE04A91248FDF7F0
:1032700061FE4FF4E13000900020ADF80400ADF89D
:103280000600ADF80800ADF80C000C20ADF80A00FF
:1032900069460A4800F0A4F8012240F22551074887
:1032A00000F078F80121054800F031F8402103488A
:1032B00000F024F805B000BD0008014000440040C3
:1032C00010B540F225510C4800F03AF890B10022B8
:1032D00040F22551084800F05DF8074800F0ECF88E
:1032E000C4B2204601F0EEFE012240F22551024810
:1032F00000F050F810BD00000044004001F40072DE
:10330000B2F5007F00D100BFCA430280704721B1EF
:10331000828942F40052828104E082894DF6FF7373
:103320001A408281704702460020B1F5007F00D12B
:1033300000BF13880B400BB1012000E00020704754
:1033400070B50246002400230025002040F66A16CE
:10335000B14200D100BFC1F3421501F01F030126A5
:1033600006FA03F3012D02D19689334006E0022DBF
:1033700002D1168A334001E0968A33400C120126AE
:1033800006FA04F41688344013B10CB1012000E0B1
:10339000002070BDF0B50346002400260025002063
:1033A00040F66A17B94200D100BF1846C1F3421473
:1033B00001F01F06012707FA06F5012C01D10C3098
:1033C00004E0022C01D1103000E014301AB107687B
:1033D0002F43076002E00768AF430760F0BD0000BD
:1033E0002DE9F04786B005460E460024A24600BFF0
:1033F000A1460027B08900B100BF2F462C8A4CF6A9
:10340000FF700440F08804432C82AC894EF6F31020
:103410000440B08831890843718908430443AC8172
:10342000AC8A4FF6FF400440B0890443AC8201A847
:10343000FFF746FB1F48874202D1DDF810A001E0EC
:10344000DDF80CA0A88900F4004040B10AEBCA00E6
:1034500000EB0A1031684900B0FBF1F807E00AEB15
:10346000CA0000EB0A1031688900B0FBF1F8642053
:10347000B8FBF0F004012009642101FB1089A88940
:1034800000F4004040B1322000EBC900B0FBF1F085
:1034900000F00700044308E0322000EB091064212B
:1034A000B0FBF1F000F00F0004432C8106B0BDE842
:1034B000F08700000038014001468888C0F308000A
:1034C0007047C1F3080282807047000010B50446BF
:1034D00021460548FFF7F5FF00BF80210248FFF7AE
:1034E00022FF0028F9D010BD0038014000BFFEE7E0
:1034F0000FB4054B10B503A9044A029800F05EF919
:1035000010BC5DF814FB0000DD3F00080400002043
:103510000FB41CB50A46521ECDE9000207A9054B9F
:103520006A46069800F04AF9009A002111701CBC06
:103530005DF814FBEB3E00087CB5491E1C461546A1
:10354000CDE90001044B6A462146284600F036F9D1
:10355000009A002111707CBDEB3E000800487047C6
:10356000F400002002E008C8121F08C1002AFAD1A6
:1035700070477047002001E001C1121F002AFBD1F3
:10358000704700002DE9FF5FDDE90220010DDDF845
:1035900038B0024318D044F61050A1F2FF31414335
:1035A0000D140F98012820D0A5EB0B00401C5FEAFA
:1035B000000A4FF00004474EDFF81C91A046504629
:1035C00016D5CAF1000728E00F98012443A201286C
:1035D00008D0002100980F9BC0E90021C0E90243F8
:1035E000BDE8FF9F6FEA0B01F4E7CBF10000DEE7D7
:1035F000074612E0F80707D02246334640464946C0
:10360000FCF726FF80468946224633461046194677
:10361000FCF71EFF04460E467F10002FEAD1DDE9BD
:103620000201BAF1000F42464B4602DAFCF710FFE6
:1036300001E0FCF77FFF04460E460022284BFDF711
:1036400019F803D84FF0FF30014607E00022254B60
:1036500020463146FCF755FEFDF7CEF9102409E06F
:10366000002C0ADB0A220023FDF732F8019B3032DE
:103670001A55641E50EA0102F2D1641C019AC4F189
:10368000110314440F9A012A03D0012208430DD1DB
:103690000AE0084304D000204FF0110B0F9080E7A0
:1036A000A3EB0B056D1E0DE05B4504DD4FF0000242
:1036B00005F1010504E003DA4FF00002A5F1010570
:1036C000002AECD000980F99C0E90231C0E900450A
:1036D00086E70000000024400000F03F30000000BA
:1036E0000000F0430000E03F30380A2801D20120FA
:1036F0007047002070470000FEB506460D46144690
:103700000027062D06D0082D16D0092D15D00A2D1C
:1037100028D113E004F11400011F0B1F17A2CDE9FB
:1037200000102946304601F079FB032801D1012021
:1037300000E0002007461AE000BF00BF04F11800B7
:10374000011F0A1F131FCDE9002102900EA2294676
:10375000304601F063FB042801D1012000E0002085
:10376000074604E00CA0FFF7C3FE002700BF00BF20
:103770000FB10020FEBD4FF0FF30FBE7253264257E
:10378000326425326400000025326425326425321B
:10379000642E2564000000005061727365206F661E
:1037A0002074696D65206572726F722028666F7271
:1037B0006D6174206572726F722921002DE9FF4FCF
:1037C00095B09B468946064600250FE2252877D10D
:1037D00000242746F84A0121059400E0044316F826
:1037E000013F203B01FA03F01042F7D130782A283C
:1037F00011D06FF02F033078A0F13002092A16D8CB
:10380000059A44F0020402EB820203EB42021044E8
:10381000761C0590EFE759F8042B0592002A03DA8D
:10382000504244F40054059044F00204761C307871
:103830002E2816D116F8010F44F004042A280DD0C2
:103840006FF02F023078A0F13003092B09D807EB75
:10385000870302EB4303C718761CF3E759F8047B90
:10386000761C30786C280FD006DC4C2817D06828DE
:103870000DD06A2814D104E0742810D07A280FD112
:103880000DE044F400140AE044F4801401E044F430
:1038900040147278824202D104F58014761C761CA2
:1038A000307866280BD013DC582877D009DC002844
:1038B00075D04528F6D04628F4D047281AD19DE186
:1038C00018E0632835D0642879D0652812D195E1B5
:1038D000702873D008DC6728F1D069286FD06E2873
:1038E0000DD06F2806D1B5E073282CD0752875D07F
:1038F000782874D05A46179990476D1C75E1C4F327
:103900000250022809D003280DD0D9F8001004284D
:103910000DD00D6009F1040967E1D9F80010EA172C
:10392000C1E90052F6E7D9F800100D80F2E70D70FA
:10393000F0E719F8041B8DF8001000208DF8010045
:10394000EA46012003E059F804AB4FF0FF3061076D
:103950004FF0000102D40DE008F101018846B942A0
:103960000FDA8045F8DB1AF808100029F4D108E0D6
:1039700008F1010188468142FADB1AF80810002993
:10398000F6D105985B46A0EB080721463846179A02
:1039900000F094FA284400EB080507E04DE029E127
:1039A0000DE01AF8010B5A4617999047B8F1010833
:1039B000F7D25B4621463846179A13E142E00A22C5
:1039C0000092C4F302524FF0000A022A08D059F8BC
:1039D00004CB032A4FEAEC710AD00DE029E02AE07B
:1039E00009F1070121F00702F2E802C1914609E05E
:1039F0000FFA8CFC4FEAEC71042A03D14FFA8CFCCD
:103A00004FEAEC71002907DA0A460021DCF1000CCC
:103A100061EB02012D2202E0220504D52B228DF854
:103A20000420012203E0E20701D02022F7E79046BC
:103A300059E00A2102E010220DE010214FF0000AA7
:103A400000910BE010224FF0000A44F00404082714
:103A5000009203E008224FF0000A0092C4F30252E1
:103A6000022A05D059F804CB0021032A08D009E026
:103A700009F1070121F00702F2E802C1914605E0D1
:103A80001FFA8CFC042A01D10CF0FF0C4FF0000847
:103A9000220728D5702806D0009B83F0100353EA34
:103AA0000A0305D00EE040228DF80420012208E030
:103AB0005CEA010206D030228DF804208DF8050062
:103AC00002229046009B83F0080353EA0A030AD1BE
:103AD0005CEA010201D1620705D530228DF804208D
:103AE0004FF001087F1E582804D034A003900EA880
:103AF00002900DE036A0F9E753466046009AFCF7C5
:103B0000E7FD84460398825C0298401E0290027092
:103B10005CEA0100F0D1029806A9081A00F1200A17
:103B2000600702D524F4803400E00127574502DD08
:103B3000A7EB0A0000E0002000EB0A0100900598C6
:103B40004144401A0590E00306D45B462146179A8B
:103B5000059800F0B3F90544002706E001A85A468D
:103B6000C05D179990476D1C7F1C4745F6DBE0034D
:103B70000CD55B462146179A059800F09FF905443D
:103B800004E030205A46179990476D1C0099481E52
:103B900000900029F5DC08E0029802995A46007866
:103BA000491C0291179990476D1CBAF10001AAF1C6
:103BB000010AF1DC65E100000928010030313233EF
:103BC0003435363738396162636465660000000059
:103BD0003031323334353637383941424344454643
:103BE0000000000000F058F90544761C30780028E9
:103BF0007FF4ECAD19B02846BDE8F08F620700D421
:103C0000062709F1070222F0070CFCE80223E1462F
:103C100003F000485FEA080C02D00FF2702C0DE0B0
:103C20005FEA045C02D50FF2682C07E05FEAC47C0F
:103C300002D00FF2602C01E0AFF2700C4FF0FF38B1
:103C400023F00043CDF850C065280CD006DC452891
:103C500009D046281DD047283DD13DE0662818D020
:103C600067287ED138E00021112F01DB112000E010
:103C7000781CCDE9000106A90EA8FFF783FCDDE959
:103C80000F010E9A03910021009207F1010A04919D
:103C90004DE04FF000400097CDE9011006A90EA8B5
:103CA000FFF770FCDDE90F0203920E9B11990022D1
:103CB000DDF80CA00093049211B9791C00EB010A05
:103CC000B7EB0A0004D4C0F1FF3007F1010A0490F9
:103CD000AAEB0700019044E0012F00DA0127002140
:103CE000112F01DD112000E03846CDE9000106A9C1
:103CF0000EA8FFF747FCDDE90F010E9A03910021A2
:103D000004910092BA4621070CD40399514500DA78
:103D10008A46BAF1010F05DD009AAAF10101515C52
:103D2000302908D0B84202DA10F1040F06DA012176
:103D3000CDE9011015E0AAF10101E9E7002805DC51
:103D4000049901440491AAEB000102E0411C514591
:103D500000DD8A460499401A401C01904FF0004053
:103D60000290200704D40198504501DBCDF804806F
:103D700000208DF84F0002980DF14F07B0F1004F71
:103D800025D02B200E9002984FF0020800280CDA64
:103D9000404202902D200E9007E00A210298FCF785
:103DA00081FC3031029007F8011DB8F10001A8F143
:103DB0000108F2DC02980028EFD1791E0E980870F5
:103DC000307800F0200040F0450007F8020D12A8FE
:103DD000C01B00F107081498007800B1012000EB27
:103DE0000A01019801EBE07105984144401A401E18
:103DF0000590E00306D45B462146179A059800F02B
:103E00005DF805441498007818B15A461799904700
:103E10006D1CE00324D55B462146179A059800F0F7
:103E20004DF805441CE00498002807DBDDE9030198
:103E3000884203DD0098405C179901E01799302013
:103E40005A469047049805F10105401C04900198DA
:103E5000401E019004D12E205A46179990476D1CA0
:103E6000BAF10001AAF1010ADDDC05E017F8010B47
:103E70005A46179990476D1CB8F10001A8F1010846
:103E8000F4DC5B462146179A0598ABE62D0000004E
:103E90002B000000200000002DE9F0410446002521
:103EA0001E461746880404D405E039462020B04752
:103EB0006D1C641EF9D52846BDE8F0812DE9F0415E
:103EC000044600251E469046C80301D5302700E071
:103ED0002027880404D505E041463846B0476D1CCC
:103EE000641EF9D52846BDE8F0814A68002A06D04C
:103EF0000A68531C0B6010704868401E4860704789
:103F00002DE9F041C1F30A52A2F2FF362F4A304B9D
:103F10000D460446142E2FDA002E12DAFCF7F1F9C2
:103F200000221346FCF7A6FB4CD2002DBCBF4FF07D
:103F30000045002446DB55EA040018BF254D19D181
:103F400040E0DFF894C02CFA06F705EA070C5CEABB
:103F5000040C08BFBDE8F081FCF7D3F9002213463A
:103F6000FCF788FB2ED2002D03DD4FF48010F040CB
:103F70000544BD43002425E0332EC8BFBDE8F081D1
:103F8000A6F1140C4FF0FF3727FA0CF73C4208BF9C
:103F9000BDE8F081FCF759FA00221346FCF76AFBF2
:103FA00010D2002D0DDD142E08BF6D1C09D0C6F1F6
:103FB0003400012101FA00F02044A04238BF6D1CFA
:103FC0000446BC4329462046BDE8F0819C75008824
:103FD0003CE4377E0000F03FFFFF0F0070B5044661
:103FE0000D4614B1E0B2FFF771FA204670BD000033
:103FF0009CB04422244901A8FCF709F923A0FFF74B
:1040000077FA2A492A48CDE916102A492A48CDE9E3
:1040100018102A482649491CCDE91201284926488A
:10402000CDE9141001F0C2F82CE01AAA00212548AD
:104030000068FDF73DFA04464FF480512248FDF731
:1040400004F82078012802D0022815D10CE063780A
:104050001E4A104601681EA0FFF74AFA61781B4805
:10406000006800F057F807E0627821789DF8683022
:1040700021A0FFF73DFA00BF00BF4FF48051124866
:10408000FCF7E5FFD1E700002C5400083D3D3D3D25
:104090003D3D3D3D3D475053205461736B2053746B
:1040A0006172743D3D3D3D3D0A000000919C4CDC39
:1040B0002A943640CD94D6DF127A5C401938A0A5F8
:1040C0008BA548BE00000020000C01400800002025
:1040D000706172736547707344617461203D20257F
:1040E000732C70416464723D307825782C73697A42
:1040F00065203D2025640A004D515F747970653D4F
:1041000025642C73697A653D25642C6572723D25A2
:10411000640A00002DE9F043ADF52F7D05460E46FB
:104120003246294664A8FCF772F831460DF2911028
:1041300000F06CFC8146B9F1020F49D0B9F1040FCF
:104140005ED0B9F1080F42D14CAA314664A800F004
:10415000A9FD509A4F995198CDE9001202904CA8B0
:104160000DC800F26C7142A0FFF7C2F95999589836
:10417000CDE90001549F3A4644A0559BFFF7B8F99A
:104180005F995E98CDE900019DF858219DF868116E
:1041900042A0FFF7ADF945208DF888014FF49671E4
:1041A00064A8FCF74DF84CAA4FF4967164A800F08F
:1041B000EDF964A940A0FFF79BF912200090034697
:1041C00008220A21019040F2E470FEF779FE4AE0ED
:1041D0001EAA314664A800F09FFC4B994A98CDE98D
:1041E000040147994698CDE9020149994898CDE9DB
:1041F00000019DF8781033A01F9AFFF779F932E09B
:1042000007AA314664A800F0EDFC3BA007A90EC93F
:10421000FFF76EF9002422E004EB84010AA800EB0A
:104220008100006904EB84020AA901EB8201C968DC
:1042300004EB8407CDE900100AA800EB870004EB2B
:10424000840783680AA800EB870004EB84074268B0
:104250000AA850F8271030A0FFF74AF9641C099803
:10426000A042D9DC00BF00BF0DF52F7DBDE8F08373
:104270005554433D25642F25642F25642025643A39
:1042800025643A25642C2020000000006C61743DF8
:1042900025662C206C6F6E3D256600003D3E256333
:1042A0002025633C3D3D20646972656374696F6ECF
:1042B0003D2566200A00000062756666203D2025C7
:1042C000730A00006669785F6D6F64653D25632C35
:1042D0006669785F747970653D25642C48444F5059
:1042E0003D25662C50444F503D25662C56444F507A
:1042F0003D2566200A000000636F756E743D2564DD
:104300002C696E6465783D25642C7361745F636FFE
:10431000756E743D25640A0069643D253032642C55
:10432000696E5F7573653D25642C656C763D25303F
:1043300032642C617A696D7574683D253033642070
:10434000646567726565732C7369673D25303264F7
:1043500064620A0000B587B09DF818000690FBF76C
:1043600033FFFCF7E9FFFCF7B9FD032000214022F1
:104370000B4BCDE90310CDE9013200900346084A0A
:10438000FC320848FDF730FB069006AA06A1032080
:10439000FDF794FBFDF784FA002007B000BD000094
:1043A000F80000207D0E000853746172742054617F
:1043B000736B0000F0B5A1B007460C4600210D4616
:1043C0000E46802C0DDA224639466846FBF71FFF61
:1043D00000200DF8040020A9684600F0D9FE05462B
:1043E0000E462846314621B0F0BDF0B5A1B00546D5
:1043F0000C4616460027802C0DDA224629466846D0
:10440000FBF705FF00200DF80400324620A968469E
:10441000FBF73FFF0746384621B0F0BD10B5024616
:104420000B460020002102E0545C6040491C994288
:10443000FADB10BD70B59CB005460E461446A06F61
:104440001A90D4E91C01CDE9180194F8680016907F
:10445000D4E91801CDE9140194F858001290D4E978
:104460001401CDE91001D4E91201CDE90E0194F84F
:104470003820D4E90F10CDE90A210C90D4E90C01C1
:10448000CDE9080194F828000690D4E90801CDE9A7
:104490000401D4E90412A069CDE900120290044A93
:1044A00031462846E36800F081FC1CB070BD000076
:1044B000D855000870B594B005460E461446A03491
:1044C000D4E90401CDE91201D4E90201CDE91001DA
:1044D000D4E90010A03CCDE90E10D4E90A23D4E9B8
:1044E0000C10CDE90923CDE90B10D4E90623D4E95A
:1044F0000810CDE90523CDE90710D4E90332A168FE
:104500006069CDE9023201910490606800902378DF
:10451000034A3146284600F049FC14B070BD000043
:104520003856000870B592B005460E461446D4E9D8
:104530001432A16DA06CCDE90F3211910E90D4E927
:104540000F32616C606BCDE90B320D910A90D4E9AA
:104550000A32216B206ACDE9073209910690D4E92D
:104560000531E268E069CDE90223CDE90410D4E920
:104570000110491CCDE90010034A31462846236842
:1045800000F014FC12B070BD7455000870B598B0FE
:1045900005460E46144694F8590094F85810CDE993
:1045A0001610D4E91401CDE914012068643861685B
:1045B000491CA268CDE910211290D4E91201CDE97D
:1045C0000E01D4E91001CDE90C0194F838000A90ED
:1045D000D4E90C01CDE9080194F828000690D4E94B
:1045E0000801CDE90401207FD4E90423A169CDE9C4
:1045F0000023CDE90210044A31462846E36800F062
:10460000D5FB18B070BD00001C55000870B590B007
:1046100005460E46144694F838000E90D4E90C0175
:10462000CDE90C0194F828000A90D4E90801CDE9FD
:104630000801207E0690D4E90401CDE90401207A26
:104640000290D4E9000104A2CDE9000131462846D8
:1046500000F0ACFB10B070BD2447505654472C25D9
:104660002E31662C25432C252E31662C25432C25F6
:104670002E31662C25432C252E31662C2543000037
:104680002DE9F04FADF50F7D07460E4690469B464F
:1046900000245D4627B900200DF50F7DBDE8F08FA1
:1046A00065E005F0010060B16EA9404600F080F8B9
:1046B000311B38196EAAFFF7BDFE044425F0010531
:1046C00051E005F0020060B140A9404600F0B0F8AA
:1046D000311B381940AAFFF7EDFE044425F002050E
:1046E00041E005F00400E8B1802151F8080000F035
:1046F00043F882464FF000090CE04A4629A940469B
:1047000000F0C6F8311B381929AAFFF70BFF044443
:1047100009F10109D14502DA301B0028EDDC25F052
:10472000040520E005F0080060B110A9404600F043
:10473000EFF8311B381910AAFFF728FF044425F0C1
:10474000080510E005F0100060B16946404600F031
:104750003BF9311B38196A46FFF758FF044425F02E
:10476000100500E005E0301B002800DC01E0002D12
:1047700097D100BF20468FE72DE9F05F834658466A
:10478000FBF747FF80460022084BFBF7D3FE0646A7
:10479000FFF7B6FB0446FBF74DFF8246BAF1000F68
:1047A00001D14FF0010A5046BDE8F09F00001040D3
:1047B0002DE9F04104460D46284600F03CFC1C2241
:1047C000211D2846FBF723FDD4E9100121F000410B
:1047D000C5E9080100221346D4E910613046FBF711
:1047E00049FF01D24E2000E0532085F82800D4E98B
:1047F000120121F00041C5E90C0100221346D4E961
:1048000012613046FBF736FF01D2452000E0572009
:1048100085F83800206AE863E06F2864D4E90C0169
:10482000C5E91201D4E91401C5E91401BDE8F0811C
:1048300070B504460D46284600F00FFC606A6860BB
:104840003835D4E90A01C5E91A01D4E90C01C5E9F2
:104850001C01D4E90E01C5E91E01383D002614E013
:1048600006EB860104F1840000EB8100406830B162
:1048700006EB860104F1840050F8210000E00020DE
:1048800005F1080141F82600761C252EE8DB70BDF5
:104890002DE9F04105460C461646204600F0E8FB9F
:1048A00080204059252802DC8020405900E0252046
:1048B000A060A068FFF760FF2060206808B90120B1
:1048C00020602068B04206DC206896FBF0F100FB17
:1048D0001160606000E06660002760684FEA800851
:1048E00011E008EB880305F1840202EB830107EB7A
:1048F000870304F10C0202EB83001422FBF787FC10
:104900007F1C08F10108042FEBDBBDE8F0810000FB
:104910002DE9F04105460C46204600F0B0FB1C2274
:10492000291D2046FBF773FC286A002801DD412081
:1049300000E056202077D5E9100121F00041C4E9BC
:10494000080100221346D5E910613046FBF792FEBC
:1049500001D24E2000E0532084F82800D5E912014E
:1049600021F00041C4E90C0100221346D5E912618F
:104970003046FBF77FFE01D2452000E0572084F847
:1049800038000F4A0F4BD5E918613046FBF7D2FDCE
:10499000C4E91001D5E91A01C4E91201D5E91C01E5
:1049A000C4E91401452084F85800286A002801DD74
:1049B000412000E04E2084F85900BDE8F08100005D
:1049C0006F1283C0CAA1FD3F2DE9F04105460C4698
:1049D000204600F065FBD5E91A01C4E90001D5E9DC
:1049E0001C01C4E90401074A074BD5E918613046A8
:1049F000FBF7A0FDC4E90801D5E91801C4E90C01E1
:104A0000BDE8F0816F1283C0CAA1FD3F70B50546B5
:104A10000C46052C01DA002070BD3E4805220168D5
:104A20002846FBF729FC08B90120F5E7394805229B
:104A300041682846FBF720FC08B90220ECE735481E
:104A4000052281682846FBF717FC08B90420E3E734
:104A500030480522C1682846FBF70EFC08B908203B
:104A6000DAE72C48052201692846FBF705FC08B95E
:104A70001020D1E72748052241692846FBF7FCFBB7
:104A800008B92020C8E72348052281692846FBF79A
:104A9000F3FB08B94020BFE71E480522C16928463C
:104AA000FBF7EAFB08B98020B6E71A480522016A3D
:104AB0002846FBF7E1FB10B94FF48070ACE71548CE
:104AC0000522416A2846FBF7D7FB10B94FF4007066
:104AD000A2E710480522816A2846FBF7CDFB10B9F2
:104AE0004FF4806098E70B480522C16A2846FBF71F
:104AF000C3FB10B94FF400608EE706480522016B36
:104B00002846FBF7B9FB10B94FF4805084E700202A
:104B100082E700003000002070B590B005460E46D8
:104B20001446B8212046FBF78BFB04F1B00104F1D9
:104B3000A80204F1A00304F13400CDE90D320F9175
:104B40000C90011F0A1F131F1038CDE909320B9179
:104B50000890011F0A1F131F1038CDE90532079175
:104B60000490011F0838021F231DCDE90032CDE952
:104B70000201234607A23146284600F04FF91128CA
:104B800005D013A0FEF7B4FC002010B070BD0120CA
:104B9000FBE700002447504753412C25432C256454
:104BA0002C25642C25642C25642C25642C25642C50
:104BB00025642C25642C25642C25642C25642C2547
:104BC000642C25642C25662C25662C25662A00007D
:104BD0004750475341207061727365206572726F50
:104BE000722100002DE9F04192B007468846144634
:104BF0005C212046FBF724FB04F158010A1F131F18
:104C000004F14800CDE90F3211910E90011F0A1FE7
:104C1000131F1438CDE90B320D910A90011F0A1FA2
:104C2000131F1438CDE9073209910690011F0A1F9E
:104C30000C381C3BCDE90230CDE904210C38211D94
:104C40002346124ACDE900104146384600F0E6F806
:104C500006466068401E8500281DA168814202DA70
:104C6000A068401B00E004200546032000EB8505FA
:104C7000AE4201DB132E06DD05A0FEF739FC002055
:104C800012B0BDE8F0810120FAE70000705400087E
:104C90004750475356207061727365206572726F7A
:104CA000722100002DE9F04192B006460F461446ED
:104CB00060212046FBF7C4FA04F15900411E04F1BB
:104CC0005002CDE90942CDE90B10201D011D083A23
:104CD00004F14003CDE90532CDE907103430283125
:104CE000203A203BCDE90132CDE903101C380EAB50
:104CF00015A239460090304600F090F805460D2D7B
:104D000008D00E2D06D01DA0FEF7F2FB002012B039
:104D1000BDE8F0810EA8FBF79EFA80462246414688
:104D20000EA8FEF7E9FC20B119A0FEF7E1FB002078
:104D3000EDE720685A2802DA206864302060606855
:104D4000401E60600120E2E7244750524D432C256D
:104D5000732C25632C25662C25632C25662C256356
:104D60002C25662C25662C25326425326425326478
:104D70002C25662C25632C25632A00004750524DB4
:104D800043207061727365206572726F72210A0030
:104D90004750524D432074696D6520706172736590
:104DA000206572726F72210A000000000FB42DE9B5
:104DB000F84306460D460027002D04DC0020BDE820
:104DC000F8035DF814FB0BA8009029463046009BC1
:104DD0000A9AFEF7B1FB0446002C0BDD611E701C25
:104DE000FFF71CFB8046291B3019434609A2FEF73A
:104DF0008FFB07463C44002C01DBAC4205DD202242
:104E000029463046FBF715FA2C4600200090204634
:104E1000D5E700002A253032780D0A000FB42DE9BD
:104E2000FF5F04468B4604EB0B080120029000262E
:104E30004FF00009002001908246009011A80390D5
:104E4000EAE00298012806D0022813D0032817D0E0
:104E500004280ED12BE010980078252802D10220DA
:104E6000029006E014F8011B10980078814200D0EF
:104E7000D9E0CDE00026DDF840900320029000BF8D
:104E8000FBF7B8F9006810990978405C202800D138
:104E9000BEE0042002901098484507D91098A0EB76
:104EA00009010A224846FFF7A0FA064600BF274636
:104EB0006EB910980078632803D0109800784328C2
:104EC00005D1207810994978884200D001262EB16A
:104ED000A019404501D834440DE0A4E01098407872
:104EE00040B1A8EB0402109841782046FBF7BAF9CC
:104EF000040000D14446444500D994E001200290CA
:104F00000098401C00900025E61B1098007863284C
:104F100012D008DC432810D0452828D0472824D0B8
:104F2000532830D112E0652820D066281BD067288E
:104F30001AD0732827D108E000BF039820C8039037
:104F400016B10DB1387828701DE000BF039820C855
:104F500003903EB135B1324639462846FBF757F942
:104F60000020A8550FE000BF00BF00BF00BF03989E
:104F700020C8039036B12DB131463846FFF71AFAF2
:104F8000C5E9000100BF00BF05B141E0039802C8B8
:104F90000D00039000D13BE006B939E0109800788D
:104FA0006F2829D006DC58281DD0642807D069282E
:104FB0002BD105E075280CD0782826D112E000BF4F
:104FC0000A2231463846FFF710FA0190019828600E
:104FD0001CE00A2231463846FFF707FA8246C5F838
:104FE00000A013E000BF102231463846FFF7FDF95C
:104FF0008246C5F800A009E0082231463846FFF78E
:10500000F4F98246C5F800A000E00CE000BF00BF44
:1050100000BF1098401C10901098007810B14445C3
:10502000FFF40FAF00BF00200390009804B0BDE86C
:10503000F01F5DF814FB10B5044680212046FBF7F5
:10504000FFF84E2084F82800452084F838004D20D1
:1050500084F8580084F8680010BD10B50446B821E3
:105060002046FBF7EDF8412020700120606010BD64
:1050700010B504465C212046FBF7E2F810BD10B5E0
:10508000044660212046FBF7DBF8562020774E20AF
:1050900084F82800452084F8380084F8580010BDB2
:1050A00010B5044640212046FBF7CAF85420207270
:1050B0004D2020764E2084F828004B2084F83800BC
:1050C00010BD000010B50446232C0BD10220294945
:1050D0000870002028490870264928480068FCF715
:1050E0007DFA45E0242C0BD10020234908700120D3
:1050F000234908702348047001202349086037E0E1
:105100001F480078012833D11E481F4909684454BC
:105110001D480068401C1C4908602A2C03D101204E
:105120001549087024E014480078012805D1124878
:105130000078401C104908701AE00F4800780228D7
:1051400016D100200E4908700B480078401C0A490F
:1051500008700D480078401C06494870012008700E
:1051600008480A490860034904480068FCF736FA11
:1051700010BD0000180000201500002000000020D5
:1051800014000020480200200C000020080000202D
:1051900000B583B00A460021CDE9001101466846FA
:1051A000FBF763FBDDE9000103B000BD00B5ADF224
:1051B000CC6D03202290239000210F48CDE92A10C6
:1051C0000E48CDE92C100E480E49CDE932010E49AA
:1051D0000E48CDE92E100120399001213A91082383
:1051E0001AAA642101A8FFF74BFA01A908A0FEF74B
:1051F0007FF90DF2CC6D00BD0088B3400020AC40BB
:1052000038894160E5D01E40B81E85EB51B8254075
:10521000746573744E6D656147656E657261746522
:105220003D2573001F1C1F1E1F1E1F1F1E1F1E1F3C
:10523000010000007856341201001400010018002B
:10524000E00101000100100014000200050001004F
:105250003F00010001000500010018007800010076
:10526000040001000400180008000100040001000F
:1052700001000100200001001600010001004000B3
:1052800001000100010040005800640001002301FA
:1052900001001000010008000A0028008002080038
:1052A0004000321100000100020001000300010073
:1052B00002000100040001000200010003000100DF
:1052C00002000100050001000200010003000100CE
:1052D00002000100040001000200010003000100BF
:1052E00002000100060001000200010003000100AD
:1052F000020001000400010002000100030001009F
:10530000020001000500010002000100030001008D
:10531000020001000400010002000100030001007E
:10532000020001000700010002000100030001006B
:10533000020001000400010002000100030001005E
:10534000020001000500010002000100030001004D
:10535000020001000400010002000100030001003E
:10536000020001000600010002000100030001002C
:10537000020001000400010002000100030001001E
:10538000020001000500010002000100030001000D
:1053900002000100040001000200010003000100FE
:1053A0000200010000404040404040404040414138
:1053B00041414140404040404040404040404040EA
:1053C0004040404040050202020202020202020284
:1053D0000202020202202020202020202020200281
:1053E0000202020202029090909090901010101011
:1053F00010101010101010101010101010101010AD
:105400000202020202028888888888880808080840
:10541000080808080808080808080808080808080C
:105420000202020240000000A55300082447505227
:105430004D432C3038353433322E30302C412C3221
:105440003233342E37323634362C4E2C313133351C
:10545000342E34343436312C452C302E3437322C23
:105460002C3035303931382C2C2C412A3742000071
:105470002447504753562C25642C25642C25642C36
:1054800025642C25642C25642C25642C25642C256E
:10549000642C25642C25642C25642C25642C25641F
:1054A0002C25642C25642C25642C25642C25642A49
:1054B00000000000474E5A4441000000474E474755
:1054C0004100000047504747410000004244475315
:1054D000410000004750475341000000474E524DE5
:1054E000430000004750524D43000000474E5654C1
:1054F000470000004750565447000000474E474CB5
:105500004C00000047505458540000004244475398
:1055100056000000475047535600000024475052A1
:105520004D432C2530326425303264253032642ED0
:10553000253032642C25632C2530372E35662C25FA
:10554000632C2530372E35662C25632C2530332EE1
:1055500033662C2530332E31662C253032642530CD
:105560003264253032642C2530332E31662C25638D
:105570002C2563002447504753562C2531642C2595
:1055800031642C253032642C253032642C253032A5
:10559000642C253033642C253032642C2530326461
:1055A0002C253032642C253033642C253032642C89
:1055B000253032642C253032642C253033642C2580
:1055C0003032642C253032642C253032642C253066
:1055D00033642C25303264002447504747412C2542
:1055E00030326425303264253032642E2530326406
:1055F0002C2530372E34662C25432C2530372E347D
:10560000662C25432C2531642C253032642C253022
:10561000332E31662C2530332E31662C25432C2534
:1056200030332E31662C25432C2530332E31662C19
:1056300025303464000000002447504753412C2596
:10564000432C2531642C253032642C253032642CD7
:10565000253032642C253032642C253032642C25E0
:105660003032642C253032642C253032642C2530C5
:1056700032642C253032642C253032642C253032B3
:10568000642C2530332E31662C2530332E31662C98
:105690002530332E31660000B85600080000002087
:1056A000F800000064350008B0570008F80000203A
:1056B000982600007435000800000000000000007B
:1056C00000000000000000000100000000000000D9
:1056D00000000000000000000000004750787878CB
:1056E0002C00000000000000C4540008D45400083E
:1056F00014550008E4540008F45400080455000848
:105700000C550008CC540008B4540008FC540008A0
:10571000EC540008DC540008BC54000800000000F1
:105720000000010203040102030406070809020441
:105730000608000000A24A0400000000000000006B
:105740000102030406070809000000000000000031
:105750000000000000000000000000000000000049
:105760000000000000000000000000000000000039
:105770000000000000000000000000000000000029
:105780000000000000000000000000000000000019
:105790000000000000000000000000000000000009
:1057A00000000000000000000000000000000000F9
:04000005080000ED02
:00000001FF
